:100000000C9446000C9465000C9465000C946500FB
:100010000C9465000C9465000C9465000C946500CC
:100020000C9465000C9465000C9465000C946500BC
:100030000C9465000C9459010C9465000C946500B7
:100040000C9465000C9465000C9465000C9465009C
:100050000C9465000C9465000C9465000C9465008C
:100060000C9465000C9465000C9465000C9465007C
:100070000C9465000C9465000C9465000C9465006C
:100080000C9465000C9465000C94650011241FBE4F
:10009000CFEFD0E4DEBFCDBF11E0A0E0B1E0E2E100
:1000A000F0E100E00BBF02C007900D92AC32B10747
:1000B000D9F721E0ACE2B1E001C01D92AE37B20742
:1000C000E1F70E9457050C9407080C940000CF93A9
:1000D000DF9300D01F92CDB7DEB789837B836A831D
:1000E00089818A3031F48A819B81BC018DE00E9434
:1000F000670080EC90E0FC018081882F90E08072A6
:100100009927892BB1F386EC90E02981FC012083AB
:1001100080E090E00F900F900F90DF91CF910895C5
:10012000CF93DF93CDB7DEB72C970FB6F894DEBF31
:100130000FBECDBF6D837E838F83988729873A87D3
:100140004B875C878D819E81AF81B88529853A85F3
:100150004B855C85BC01CD010E943607DC01CB01DB
:1001600089839A83AB83BC8389819A81AB81BC816B
:10017000892B8A2B8B2B29F489859A85AB85BC85A5
:1001800011C089859A85AB85BC858D839E83AF839D
:10019000B88789819A81AB81BC8189879A87AB872F
:1001A000BC87D0CFBC01CD012C960FB6F894DEBF32
:1001B0000FBECDBFDF91CF910895CF93DF9300D0D5
:1001C00000D0CDB7DEB769837A838B839C83898126
:1001D0009A81AB81BC8180930E0190930F01A09313
:1001E0001001B093110180910E0190910F01A09127
:1001F0001001B091110180932D0190932E01A093D5
:100200002F01B093300100000F900F900F900F90CE
:10021000DF91CF910895CF93DF93CDB7DEB781E81B
:1002200090E02BE0FC01208388E890E02DE730E0AF
:10023000FC01318320838FE690E022E0FC012083E3
:1002400084E890E0FC011182108280910E0190916F
:100250000F01A0911001B091110180932D01909395
:100260002E01A0932F01B09330018FE590E02FE590
:1002700030E0F90120812068FC0120830000DF913B
:10028000CF910895CF93DF93CDB7DEB781E890E0AB
:10029000FC0110820000DF91CF910895CF93DF938E
:1002A000CDB7DEB781E080932C010000DF91CF91C4
:1002B00008951F920F9200905F000F9211240090FA
:1002C0005B000F922F933F934F935F936F937F93B6
:1002D0008F939F93AF93BF93EF93FF93CF93DF934E
:1002E000CDB7DEB780912D0190912E01A0912F0105
:1002F000B09130010197A109B10980932D0190932C
:100300002E01A0932F01B093300180912D01909187
:100310002E01A0912F01B0913001892B8A2B8B2BBC
:1003200091F40E944E0180910E0190910F01A091D5
:100330001001B091110180932D0190932E01A09393
:100340002F01B09330010000DF91CF91FF91EF9129
:10035000BF91AF919F918F917F916F915F914F91DD
:100360003F912F910F9000925B000F9000925F00E1
:100370000F901F901895CF93DF9300D000D0CDB78A
:10038000DEB78B836C838B8182958F70282F8B8156
:10039000882F90E082959295907F9827807F98276C
:1003A000822B8B838B81882F90E08C7C992795956D
:1003B000879595958795282F8B81882F90E083735B
:1003C0009927880F991F880F991F822B8B838B8108
:1003D000882F90E08A7A992795958795282F8B8189
:1003E000882F90E085759927880F991F822B8B8322
:1003F0008C818130C1F51A82198227C088E290E091
:1004000028E0FC01208388E290E028E230E0F90156
:100410002081422F2B81222F30E0098002C03595A8
:1004200027950A94E2F72170242BFC01208388E2AF
:1004300090E028E230E0F90120812260FC01208375
:1004400089819A8101969A83898389819A81089703
:10045000ACF288E290E028E230E0F90120812460EB
:10046000FC0120833AC08C818230B9F51A8219824E
:1004700027C08BE290E028E0FC0120838BE290E033
:100480002BE230E0F9012081422F2B81222F30E036
:10049000098002C0359527950A94E2F72170242B34
:1004A000FC0120838BE290E02BE230E0F901208117
:1004B0002260FC01208389819A8101969A83898335
:1004C00089819A810897ACF28BE290E02BE230E0D0
:1004D000F90120812460FC01208300000F900F901F
:1004E0000F900F90DF91CF910895CF93DF9300D0BD
:1004F000CDB7DEB79A83898389819A81019729F4E0
:10050000809119018F5F8093190189819A810297E7
:1005100029F48091190181508093190189819A8170
:10052000039751F4809119018150809319018091B2
:100530001A01815080931A0189819A81049751F49C
:100540008091190181508093190180911A018F5F68
:1005500080931A0189819A81059751F4809119013C
:100560008F5F8093190180911A01815080931A0145
:1005700089819A81069751F4809119018F5F809348
:10058000190180911A018F5F80931A0100000F906A
:100590000F90DF91CF910895CF93DF9300D0CDB727
:1005A000DEB79A83898389819A81892B09F0E9C012
:1005B00080911A01882311F580911901813009F485
:1005C00041C0809119018630E9F180911B01909121
:1005D0001C01039731F484E090E090931C01809318
:1005E0001B0180911B0190911C01059759F586E034
:1005F00090E090931C0180931B0124C080911A010C
:10060000843001F5809119018130E1F08091190168
:100610008630C1F080911B0190911C01049731F448
:1006200083E090E090931C0180931B0180911B015B
:1006300090911C01069731F485E090E090931C01A5
:1006400080931B0180911901813009F046C080918F
:100650001A01282F30E080911701882F90E0019631
:100660002817390731F481E090E090931C018093C2
:100670001B0190911A0180911701981789F48091BC
:100680001701882339F486E090E090931C01809351
:100690001B0106C085E090E090931C0180931B0134
:1006A00080911A01282F30E080911701882F90E067
:1006B00002962817390789F480911701823039F49E
:1006C00085E090E090931C0180931B0106C086E0BA
:1006D00090E090931C0180931B018091190186305A
:1006E00009F046C080911A01282F30E0809118014E
:1006F000882F90E001962817390731F482E090E0C6
:1007000090931C0180931B0190911A018091180114
:10071000981789F480911801882339F484E090E0D7
:1007200090931C0180931B0106C083E090E090939E
:100730001C0180931B0180911A01282F30E08091C9
:100740001801882F90E002962817390789F48091C4
:100750001801823039F483E090E090931C0180937B
:100760001B0106C084E090E090931C0180931B0164
:1007700080911B0190911C010E9475021A821982BE
:1007800002C01A82198289819A810F900F90DF919D
:10079000CF910895CF93DF9300D0CDB7DEB79A8382
:1007A000898389819A81892B69F580916C018823DD
:1007B00021F480917A01882321F180916C018823B2
:1007C00021F080917A018823E1F480916C018823E3
:1007D00051F0809117018823C1F080911701815059
:1007E0008093170112C080917A01882371F0809163
:1007F0001701823051F0809117018F5F80931701AC
:1008000004C003C01A82198201C0000089819A8144
:100810000F900F90DF91CF910895CF93DF9300D089
:10082000CDB7DEB79A83898389819A81009741F099
:10083000019709F03FC081E090E09A8389833DC031
:100840000E94B70723E030E0B9010E942207019718
:1008500071F580911901813061F080911901823028
:1008600041F080911901833021F080911901843089
:10087000F1F490911A0180911801981748F4809131
:100880001801882329F08091180181508093180164
:1008900090911A0180911801891748F480911801EC
:1008A000823029F0809118018F5F809318011A829D
:1008B000198203C01A821982000089819A810F90DF
:1008C0000F90DF91CF910895CF93DF9300D0CDB7F4
:1008D000DEB79A83898389819A81892B69F4809113
:1008E0001901882321F080911901873011F41092A9
:1008F0001D011A82198203C01A821982000089819F
:100900009A810F900F90DF91CF910895CF93DF934D
:1009100000D0CDB7DEB79A83898389819A818130EF
:10092000910509F49FC08230910509F4ABC0892B71
:1009300009F0B3C080913101833020F461E081E09F
:100940000E94BB0180913101882359F480911701E5
:10095000882F90E08E5E9E4FFC01808162E00E94B5
:10096000BB0180913101813061F480911701882FA2
:1009700090E001968E5E9E4FFC01808162E00E94B5
:10098000BB0180913101823061F480911701882F81
:1009900090E002968E5E9E4FFC01808162E00E9494
:1009A000BB0180913101833040F08091310186306C
:1009B00020F461E080E80E94BB0180913101833026
:1009C00059F480911801882F90E08E5E9E4FFC01B3
:1009D000808162E00E94BB0180913101843061F42A
:1009E00080911801882F90E001968E5E9E4FFC0149
:1009F000808162E00E94BB0180913101853061F409
:100A000080911801882F90E002968E5E9E4FFC0127
:100A1000808162E00E94BB01809131018630E9F45F
:100A200080911D018823C9F080911901282F30E0A1
:100A300081E090E002C0880F991F2A95E2F761E0FB
:100A40000E94BB0180911A01882F90E08E5E9E4F1C
:100A5000FC01808162E00E94BB0181E090E09A830A
:100A600089831EC0809131018F5F80933101809115
:100A70003101873011F41092310182E090E09A83C5
:100A800089830EC061E080E00E94BB0162E08FEFCD
:100A90000E94BB011A82198203C01A8219820000C7
:100AA00089819A810F900F90DF91CF9108950F93D4
:100AB0001F93CF93DF93CDB7DEB72F970FB6F89480
:100AC000DEBF0FBECDBF8AE290E02FEFFC01208396
:100AD0008BE290E0FC01108287E290E02FEFFC01B6
:100AE000208388E290E0FC01108284E290E02FEF06
:100AF000FC01208385E290E0FC01108281E290E01D
:100B0000FC01108282E290E02FEFFC0120838AE05A
:100B1000E2E2F1E0DE01169601900D928A95E1F78E
:100B200085E090E09C838B838FEF8D838D81809314
:100B300032018CE291E0A0E0B0E080933301909329
:100B40003401A0933501B093360180913301909127
:100B50003401A0913501B091360180933701909313
:100B60003801A0933901B0933A018CEC92E0909354
:100B70003C0180933B018D8180933D0188EC90E0A6
:100B8000A0E0B0E080933E0190933F01A09340012C
:100B9000B093410180913E0190913F01A0914001AD
:100BA000B09141018093420190934301A09344018D
:100BB000B09345018AEC93E09093470180934601FE
:100BC0008D818093480181E090E0A0E0B0E08093C7
:100BD000490190934A01A0934B01B0934C0180913D
:100BE000490190914A01A0914B01B0914C01809331
:100BF0004D0190934E01A0934F01B093500186E8B0
:100C000094E090935201809351018D818093530120
:100C100088EC90E0A0E0B0E08093540190935501FF
:100C2000A0935601B09357018091540190915501C2
:100C3000A0915601B09157018093580190935901AA
:100C4000A0935A01B0935B018DE094E090935D0115
:100C500080935C018D8180935E018CE291E0A0E045
:100C6000B0E080935F0190936001A0936101B09325
:100C7000620180915F0190916001A0916101B0914A
:100C800062018093630190936401A0936501B09326
:100C9000660184E694E0909368018093670161E0C7
:100CA00070E080E090E00E94DD000E940B0180E295
:100CB00090E0FC018081882F90E08170992721E0ED
:100CC000892B09F020E0822F80936C0180E290E074
:100CD000FC0180818095827080937A0185E290E0AA
:100CE00020916C01FC0120831A8219829BC08981AA
:100CF0009A81880F991F9E012F5F3F4F820F931F8C
:100D00000596FC0180819181FC0125813681478116
:100D1000508589819A81880F991FBE016F5F7F4F2F
:100D2000860F971F0596FC0180819181FC018181CE
:100D30009281A381B481281739074A075B0708F419
:100D400045C089819A81880F991F9E012F5F3F4F6F
:100D5000820F931F0596FC010081118189819A8180
:100D6000880F991F9E012F5F3F4F820F931F05969B
:100D7000FC0180819181FC012185328589819A81E4
:100D8000880F991FAE014F5F5F4F840F951F059627
:100D9000FC0180819181FC018081082E000C990B5F
:100DA000F9010995F801808389819A81880F991F3B
:100DB0009E012F5F3F4F820F931F0596FC0180819C
:100DC0009181FC01158216821782108689819A8191
:100DD000880F991F9E012F5F3F4F820F931F05962B
:100DE000FC012081318189819A81880F991FAE0190
:100DF0004F5F5F4F840F951F0596FC0180819181A5
:100E0000FC0185819681A781B0850196A11DB11D48
:100E1000F90185839683A783B08789819A8101969A
:100E20009A83898329813A818B819C81281739078C
:100E300008F45DCF000080912C018823E1F310922B
:100E40002C0135CF97FB072E16F4009407D077FDC1
:100E500009D00E94580707FC05D03EF49095819573
:100E60009F4F0895709561957F4F0895A1E21A2EC6
:100E7000AA1BBB1BFD010DC0AA1FBB1FEE1FFF1F3E
:100E8000A217B307E407F50720F0A21BB30BE40B8E
:100E9000F50B661F771F881F991F1A9469F76095D5
:100EA0007095809590959B01AC01BD01CF0108958F
:100EB000AA1BBB1B51E107C0AA1FBB1FA617B70780
:100EC00010F0A61BB70B881F991F5A95A9F780959C
:100ED0009095BC01CD0108958F929F92AF92BF92E1
:100EE000CF92DF92EF92FF92CF93DF93EC01688174
:100EF00079818A819B81611571058105910521F4B4
:100F000064E279ED8BE597E02DE133EF41E050E0CD
:100F10000E94C60749015A019B01AC01A7EAB1E44E
:100F20000E94E5076B017C01ACEEB4EFA5019401D2
:100F30000E94F307DC01CB018C0D9D1DAE1DBF1D72
:100F4000B7FF03C00197A109B04888839983AA839A
:100F5000BB839F77DF91CF91FF90EF90DF90CF9091
:100F6000BF90AF909F908F9008950C946C078EE186
:100F700091E00C946C07A0E0B0E080931E01909388
:100F80001F01A0932001B09321010895052E97FB26
:100F90001EF400940E94DD0757FD07D00E9436071B
:100FA00007FC03D04EF40C94DD0750954095309526
:100FB00021953F4F4F4F5F4F0895909580957095C5
:100FC00061957F4F8F4F9F4F08950E94F807A59F0F
:100FD000900DB49F900DA49F800D911D1124089534
:100FE000B7FF0C94E5070E94E507821B930B089559
:100FF000A29FB001B39FC001A39F700D811D11245A
:10100000911DB29F700D811D1124911D0895F894BA
:02101000FFCF10
:101012000000000200000000670000000000010064
:101022000000FEFDFBF7EF010106020200010100D4
:0C103200000032013D01480153015E0145
:00000001FF
