:100000000C9446000C9465000C9465000C946500FB
:100010000C9465000C9465000C9465000C946500CC
:100020000C9465000C9465000C9465000C946500BC
:100030000C9465000C9459010C9465000C946500B7
:100040000C9465000C9465000C9465000C9465009C
:100050000C9465000C9465000C9465000C9465008C
:100060000C9465000C9465000C9465000C9465007C
:100070000C9465000C9465000C9465000C9465006C
:100080000C9465000C9465000C94650011241FBE4F
:10009000CFEFD0E4DEBFCDBF11E0A0E0B1E0E4E0FF
:1000A000FFE000E00BBF02C007900D92A432B10741
:1000B000D9F721E0A4E2B1E001C01D92A336B20756
:1000C000E1F70E94DD050C9480070C940000CF93AB
:1000D000DF9300D01F92CDB7DEB789837B836A831D
:1000E00089818A3031F48A819B81BC018DE00E9434
:1000F000670080EC90E0FC018081882F90E08072A6
:100100009927892BB1F386EC90E02981FC012083AB
:1001100080E090E00F900F900F90DF91CF910895C5
:10012000CF93DF93CDB7DEB72C970FB6F894DEBF31
:100130000FBECDBF6D837E838F83988729873A87D3
:100140004B875C878D819E81AF81B88529853A85F3
:100150004B855C85BC01CD010E945E07DC01CB01B3
:1001600089839A83AB83BC8389819A81AB81BC816B
:10017000892B8A2B8B2B29F489859A85AB85BC85A5
:1001800011C089859A85AB85BC858D839E83AF839D
:10019000B88789819A81AB81BC8189879A87AB872F
:1001A000BC87D0CFBC01CD012C960FB6F894DEBF32
:1001B0000FBECDBFDF91CF910895CF93DF9300D0D5
:1001C00000D0CDB7DEB769837A838B839C83898126
:1001D0009A81AB81BC8180930E0190930F01A09313
:1001E0001001B093110180910E0190910F01A09127
:1001F0001001B09111018093250190932601A093E5
:100200002701B093280100000F900F900F900F90DE
:10021000DF91CF910895CF93DF93CDB7DEB781E81B
:1002200090E02BE0FC01208388E890E02DE730E0AF
:10023000FC01318320838FE690E022E0FC012083E3
:1002400084E890E0FC011182108280910E0190916F
:100250000F01A0911001B09111018093250190939D
:100260002601A0932701B09328018FE590E02FE5A8
:1002700030E0F90120812068FC0120830000DF913B
:10028000CF910895CF93DF93CDB7DEB781E890E0AB
:10029000FC0110820000DF91CF910895CF93DF938E
:1002A000CDB7DEB781E0809324010000DF91CF91CC
:1002B00008951F920F9200905F000F9211240090FA
:1002C0005B000F922F933F934F935F936F937F93B6
:1002D0008F939F93AF93BF93EF93FF93CF93DF934E
:1002E000CDB7DEB78091250190912601A09127011D
:1002F000B09128010197A109B1098093250190933C
:100300002601A0932701B0932801809125019091A7
:100310002601A0912701B0912801892B8A2B8B2BD4
:1003200091F40E944E0180910E0190910F01A091D5
:100330001001B09111018093250190932601A093A3
:100340002701B09328010000DF91CF91FF91EF9139
:10035000BF91AF919F918F917F916F915F914F91DD
:100360003F912F910F9000925B000F9000925F00E1
:100370000F901F901895CF93DF9300D000D0CDB78A
:10038000DEB78B836C838B8182958F70282F8B8156
:10039000882F90E082959295907F9827807F98276C
:1003A000822B8B838B81882F90E08C7C992795956D
:1003B000879595958795282F8B81882F90E083735B
:1003C0009927880F991F880F991F822B8B838B8108
:1003D000882F90E08A7A992795958795282F8B8189
:1003E000882F90E085759927880F991F822B8B8322
:1003F0008C818130C1F51A82198227C088E290E091
:1004000028E0FC01208388E290E028E230E0F90156
:100410002081422F2B81222F30E0098002C03595A8
:1004200027950A94E2F72170242BFC01208388E2AF
:1004300090E028E230E0F90120812260FC01208375
:1004400089819A8101969A83898389819A81089703
:10045000ACF288E290E028E230E0F90120812460EB
:10046000FC0120833AC08C818230B9F51A8219824E
:1004700027C08BE290E028E0FC0120838BE290E033
:100480002BE230E0F9012081422F2B81222F30E036
:10049000098002C0359527950A94E2F72170242B34
:1004A000FC0120838BE290E02BE230E0F901208117
:1004B0002260FC01208389819A8101969A83898335
:1004C00089819A810897ACF28BE290E02BE230E0D0
:1004D000F90120812460FC01208300000F900F901F
:1004E0000F900F90DF91CF910895CF93DF9300D0BD
:1004F0001F92CDB7DEB789836A834B838B818823B4
:1005000071F08A81282F30E081E090E002C0880FEE
:10051000991F2A95E2F7982F8981892B0EC08A812D
:10052000282F30E081E090E002C0880F991F2A95C3
:10053000E2F7982F9095898189230F900F900F9063
:10054000DF91CF910895CF93DF9300D0CDB7DEB781
:1005500089836A838981882F90E02A81222F30E065
:1005600002C0959587952A95E2F78170992721E039
:10057000892B09F420E0822F0F900F90DF91CF910B
:1005800008950F931F93CF93DF9300D000D000D036
:10059000CDB7DEB79E838D838D819E81019709F053
:1005A00067C01A82198216C089819A818E5E9E4F19
:1005B000FC01808140E060E00E947502282F898163
:1005C0009A818E5E9E4FFC01208389819A810196DB
:1005D0009A83898389819A81059734F38091620196
:1005E000882F90E08C010150110980916201882FC1
:1005F00090E001978E5E9E4FFC01808141E060E0BB
:100600000E947502282FC8018E5E9E4FFC01208338
:1006100080916201082F10E080916201882F90E0A4
:100620008E5E9E4FFC01808141E060E00E94750279
:10063000282FC8018E5E9E4FFC01208380916201AD
:10064000882F90E08C010F5F1F4F80916201882FEF
:1006500090E001968E5E9E4FFC01808141E060E05B
:100660000E947502282FC8018E5E9E4FFC012083D8
:100670008D819E81029709F067C01C821B8216C083
:100680008B819C818E5E9E4FFC01808140E067E003
:100690000E947502282F8B819C818E5E9E4FFC01EB
:1006A00020838B819C8101969C838B838B819C8191
:1006B000059734F380911C01882F90E08C01015044
:1006C000110980911C01882F90E001978E5E9E4F4A
:1006D000FC01808141E067E00E947502282FC8017B
:1006E0008E5E9E4FFC01208380911C01082F10E03C
:1006F00080911C01882F90E08E5E9E4FFC018081CE
:1007000041E067E00E947502282FC8018E5E9E4F6F
:10071000FC01208380911C01882F90E08C010F5FE9
:100720001F4F80911C01882F90E001968E5E9E4F96
:10073000FC01808141E067E00E947502282FC8011A
:100740008E5E9E4FFC012083000026960FB6F89423
:10075000DEBF0FBECDBFDF91CF911F910F910895E6
:100760000F931F93CF93DF9300D000D000D0CDB76D
:10077000DEB79E838D838D819E81019709F06BC0CA
:100780001A82198216C089819A818E5E9E4FFC0161
:10079000808140E060E00E947502282F89819A8163
:1007A0008E5E9E4FFC01208389819A8101969A83F7
:1007B000898389819A81059734F380916201882F1A
:1007C00090E08C010F5F1F4F80916201882F90E0B5
:1007D00001968E5E9E4FFC01808141E060E00E94A8
:1007E0007502282FC8018E5E9E4FFC0120838091E8
:1007F0006201882F90E08C010E5F1F4F8091620193
:10080000882F90E002968E5E9E4FFC01808141E031
:1008100060E00E947502282FC8018E5E9E4FFC0189
:10082000208380916201882F90E08C010D5F1F4F23
:1008300080916201882F90E003968E5E9E4FFC01AE
:10084000808141E060E00E947502282FC8018E5E21
:100850009E4FFC0120838D819E81029709F06BC021
:100860001C821B8216C08B819C818E5E9E4FFC0178
:10087000808140E067E00E947502282F8B819C8177
:100880008E5E9E4FFC0120838B819C8101969C8310
:100890008B838B819C81059734F380911C01882F79
:1008A00090E08C010F5F1F4F80911C01882F90E01A
:1008B00001968E5E9E4FFC01808141E067E00E94C0
:1008C0007502282FC8018E5E9E4FFC012083809107
:1008D0001C01882F90E08C010E5F1F4F80911C013E
:1008E000882F90E002968E5E9E4FFC01808141E051
:1008F00067E00E947502282FC8018E5E9E4FFC01A2
:10090000208380911C01882F90E08C010D5F1F4F88
:1009100080911C01882F90E003968E5E9E4FFC0113
:10092000808141E067E00E947502282FC8018E5E39
:100930009E4FFC012083000026960FB6F894DEBF80
:100940000FBECDBFDF91CF911F910F910895CF932F
:10095000DF9300D0CDB7DEB79A83898389819A81EE
:100960000F900F90DF91CF910895CF93DF9300D038
:1009700000D01F92CDB7DEB79D838C8319828C8106
:100980009D81892B09F04BC01B821A8218C0898176
:10099000813081F08A819B818E5E9E4FFC01808137
:1009A00060E00E94A302882329F08A81809362017B
:1009B00081E089838A819B8101969B838A838A81D6
:1009C0009B81059724F3198280914C01882321F49F
:1009D00080915D01882311F180914C01882321F0E1
:1009E00080915D018823D1F480914C01882349F0E6
:1009F000809162018823B1F081E090E00E94C10201
:100A000011C080915D01882369F08091620182307C
:100A100049F081E090E00E94B00304C003C01D8251
:100A20001C8201C000008C819D810F900F900F905F
:100A30000F900F90DF91CF910895CF93DF9300D067
:100A40001F92CDB7DEB79B838A8319828A819B81EF
:100A5000009761F0019729F481E090E09B838A83FD
:100A600006C081E090E09B838A8301C000008A81F8
:100A70009B810F900F900F90DF91CF910895CF93AE
:100A8000DF9300D0CDB7DEB79A83898389819A81BD
:100A9000009721F0019709F478C085C08091290161
:100AA000833020F461E081E00E94BB018091290144
:100AB000882359F480916201882F90E0895E9E4FCF
:100AC000FC01808162E00E94BB018091290181309C
:100AD00061F480916201882F90E00196895E9E4FBB
:100AE000FC01808162E00E94BB018091290182307B
:100AF00061F480916201882F90E00296895E9E4F9A
:100B0000FC01808162E00E94BB0180912901833059
:100B100040F080912901863020F461E080E80E9455
:100B2000BB0180912901833059F480911C01882FE9
:100B300090E0895E9E4FFC01808162E00E94BB01D3
:100B400080912901843061F480911C01882F90E00C
:100B50000196895E9E4FFC01808162E00E94BB018C
:100B600080912901853061F480911C01882F90E0EB
:100B70000296895E9E4FFC01808162E00E94BB016B
:100B800081E090E09A83898311C0809129018F5F71
:100B90008093290180912901873011F41092290155
:100BA0001A82198203C01A821982000089819A81EF
:100BB0000F900F90DF91CF9108950F931F93CF93D4
:100BC000DF93CDB7DEB72B970FB6F894DEBF0FBE1D
:100BD000CDBF8AE290E02FEFFC0120838BE290E012
:100BE000FC01108287E290E02FEFFC01208388E275
:100BF00090E0FC01108284E290E02FEFFC01208362
:100C000085E290E0FC01108281E290E0FC0110821C
:100C100082E290E02FEFFC01208386E0EDE1F1E03D
:100C2000DE01169601900D928A95E1F783E090E03F
:100C30009C838B838FEF8D838D8180932A018CE23F
:100C400091E0A0E0B0E080932B0190932C01A09361
:100C50002D01B0932E0180912B0190912C01A09138
:100C60002D01B0912E0180932F0190933001A0931C
:100C70003101B093320187EA94E09093340180937C
:100C800033018D81809335018CE291E0A0E0B0E0EA
:100C90008093360190933701A0933801B0933901C6
:100CA0008091360190913701A0913801B0913901BE
:100CB00080933A0190933B01A0933C01B0933D0196
:100CC00085EB94E090933F0180933E018D8180936A
:100CD000400181E090E0A0E0B0E08093410190937A
:100CE0004201A0934301B093440180913601909159
:100CF0003701A0913801B09139018093450190935B
:100D00004601A0934701B09348018FE395E090938B
:100D10004A018093490161E070E080E090E00E9428
:100D2000DD000E940B0180E290E0FC018081882FB1
:100D300090E08170992721E0892B09F020E0822F33
:100D400080934C0180E290E0FC018081809582706C
:100D500080935D0185E290E020914C01FC012083AD
:100D60001A8219829BC089819A81880F991F9E01DE
:100D70002F5F3F4F820F931F0596FC018081918169
:100D8000FC01258136814781508589819A81880FB0
:100D9000991FBE016F5F7F4F860F971F0596FC015D
:100DA00080819181FC0181819281A381B481281786
:100DB00039074A075B0708F445C089819A81880F83
:100DC000991F9E012F5F3F4F820F931F0596FC01D5
:100DD0000081118189819A81880F991F9E012F5F5F
:100DE0003F4F820F931F0596FC0180819181FC018A
:100DF0002185328589819A81880F991FAE014F5FC5
:100E00005F4F840F951F0596FC0180819181FC0145
:100E10008081082E000C990BF9010995F801808357
:100E200089819A81880F991F9E012F5F3F4F820F02
:100E3000931F0596FC0180819181FC011582168229
:100E40001782108689819A81880F991F9E012F5FD2
:100E50003F4F820F931F0596FC01208131818981CC
:100E60009A81880F991FAE014F5F5F4F840F951FC6
:100E70000596FC0180819181FC0185819681A78185
:100E8000B0850196A11DB11DF90185839683A783C5
:100E9000B08789819A8101969A83898329813A81D1
:100EA0008B819C812817390708F45DCF0000809161
:100EB00024018823E1F31092240135CFA1E21A2EF8
:100EC000AA1BBB1BFD010DC0AA1FBB1FEE1FFF1FEE
:100ED000A217B307E407F50720F0A21BB30BE40B3E
:100EE000F50B661F771F881F991F1A9469F7609585
:100EF0007095809590959B01AC01BD01CF0108953F
:040F0000F894FFCF93
:100F04000000000200000000670000000000010073
:100F140000000081C18100FEFDFBF7EF012A0135CD
:040F24000140010087
:00000001FF
