:100000000C9446000C9465000C9465000C946500FB
:100010000C9465000C9465000C9465000C946500CC
:100020000C9465000C9465000C9465000C946500BC
:100030000C9465000C9459010C9465000C946500B7
:100040000C9465000C9465000C9465000C9465009C
:100050000C9465000C9465000C9465000C9465008C
:100060000C9465000C9465000C9465000C9465007C
:100070000C9465000C9465000C9465000C9465006C
:100080000C9465000C9465000C94650011241FBE4F
:10009000CFEFD0E4DEBFCDBF11E0A0E0B1E0E6E6F7
:1000A000F5E100E00BBF02C007900D92A033B1074D
:1000B000D9F721E0A0E3B1E001C01D92AF38B2074B
:1000C000E1F70E94D6070C94B10A0C940000CF937C
:1000D000DF9300D01F92CDB7DEB789837B836A831D
:1000E00089818A3031F48A819B81BC018DE00E9434
:1000F000670080EC90E0FC018081882F90E08072A6
:100100009927892BB1F386EC90E02981FC012083AB
:1001100080E090E00F900F900F90DF91CF910895C5
:10012000CF93DF93CDB7DEB72C970FB6F894DEBF31
:100130000FBECDBF6D837E838F83988729873A87D3
:100140004B875C878D819E81AF81B88529853A85F3
:100150004B855C85BC01CD010E94F409DC01CB011B
:1001600089839A83AB83BC8389819A81AB81BC816B
:10017000892B8A2B8B2B29F489859A85AB85BC85A5
:1001800011C089859A85AB85BC858D839E83AF839D
:10019000B88789819A81AB81BC8189879A87AB872F
:1001A000BC87D0CFBC01CD012C960FB6F894DEBF32
:1001B0000FBECDBFDF91CF910895CF93DF9300D0D5
:1001C00000D0CDB7DEB769837A838B839C83898126
:1001D0009A81AB81BC8180930E0190930F01A09313
:1001E0001001B093110180910E0190910F01A09127
:1001F0001001B09111018093310190933201A093CD
:100200003301B093340100000F900F900F900F90C6
:10021000DF91CF910895CF93DF93CDB7DEB781E81B
:1002200090E02BE0FC01208388E890E02DE730E0AF
:10023000FC01318320838FE690E022E0FC012083E3
:1002400084E890E0FC011182108280910E0190916F
:100250000F01A0911001B091110180933101909391
:100260003201A0933301B09334018FE590E02FE584
:1002700030E0F90120812068FC0120830000DF913B
:10028000CF910895CF93DF93CDB7DEB781E890E0AB
:10029000FC0110820000DF91CF910895CF93DF938E
:1002A000CDB7DEB781E0809330010000DF91CF91C0
:1002B00008951F920F9200905F000F9211240090FA
:1002C0005B000F922F933F934F935F936F937F93B6
:1002D0008F939F93AF93BF93EF93FF93CF93DF934E
:1002E000CDB7DEB78091310190913201A0913301F9
:1002F000B09134010197A109B10980933101909324
:100300003201A0933301B093340180913101909177
:100310003201A0913301B0913401892B8A2B8B2BB0
:1003200091F40E944E0180910E0190910F01A091D5
:100330001001B09111018093310190933201A0938B
:100340003301B09334010000DF91CF91FF91EF9121
:10035000BF91AF919F918F917F916F915F914F91DD
:100360003F912F910F9000925B000F9000925F00E1
:100370000F901F901895CF93DF9300D000D0CDB78A
:10038000DEB78B836C838B8182958F70282F8B8156
:10039000882F90E082959295907F9827807F98276C
:1003A000822B8B838B81882F90E08C7C992795956D
:1003B000879595958795282F8B81882F90E083735B
:1003C0009927880F991F880F991F822B8B838B8108
:1003D000882F90E08A7A992795958795282F8B8189
:1003E000882F90E085759927880F991F822B8B8322
:1003F0008C818130C1F51A82198227C088E290E091
:1004000028E0FC01208388E290E028E230E0F90156
:100410002081422F2B81222F30E0098002C03595A8
:1004200027950A94E2F72170242BFC01208388E2AF
:1004300090E028E230E0F90120812260FC01208375
:1004400089819A8101969A83898389819A81089703
:10045000ACF288E290E028E230E0F90120812460EB
:10046000FC0120833AC08C818230B9F51A8219824E
:1004700027C08BE290E028E0FC0120838BE290E033
:100480002BE230E0F9012081422F2B81222F30E036
:10049000098002C0359527950A94E2F72170242B34
:1004A000FC0120838BE290E02BE230E0F901208117
:1004B0002260FC01208389819A8101969A83898335
:1004C00089819A810897ACF28BE290E02BE230E0D0
:1004D000F90120812460FC01208300000F900F901F
:1004E0000F900F90DF91CF910895CF93DF93CDB709
:1004F000DEB78AE790E02AE730E0F9012081206E3C
:10050000FC0120830000DF91CF910895CF93DF930A
:100510001F92CDB7DEB789838CE790E02981283020
:1005200028F02CE730E0F901208101C02981FC018D
:1005300020831092410106C00000809141018F5F2D
:1005400080934101809141018F30B0F300000F9002
:10055000DF91CF910895CF93DF9300D0CDB7DEB771
:100560009A83898389819A81019729F480911B015B
:100570008F5F80931B0189819A81029729F4809172
:100580001B01815080931B0189819A81039799F403
:1005900080911B01815080931B0180911C0181502F
:1005A00080931C0180913B01882329F080911C01DC
:1005B000815080931C0189819A81049799F48091DC
:1005C0001B01815080931B0180911C018F5F8093E0
:1005D0001C0180913B01882329F080911C018F5FD1
:1005E00080931C0189819A81059799F480911B0160
:1005F0008F5F80931B0180911C01815080931C01AF
:1006000080913C01882329F080911C0181508093C6
:100610001C0189819A81069799F480911B018F5F53
:1006200080931B0180911C018F5F80931C0180913E
:100630003C01882329F080911C018F5F80931C016D
:1006400000000F900F90DF91CF910895CF93DF932B
:1006500000D0CDB7DEB79A83898389819A810097CC
:1006600019F0019789F0C4C180914001882349F0B5
:1006700080912001882329F481E090E09A83898386
:10068000B9C11A821982B6C180912001882321F450
:1006900080914001882319F41A821982ABC180919C
:1006A0001C01882311F580911B01813009F441C0A0
:1006B00080911B018630E9F180911E0190911F010C
:1006C000039731F484E090E090931F0180931E0122
:1006D00080911E0190911F01059759F586E090E0E9
:1006E00090931F0180931E0124C080911C018430CF
:1006F00001F580911B018130E1F080911B01863072
:10070000C1F080911E0190911F01049731F483E0A4
:1007100090E090931F0180931E0180911E019091A3
:100720001F01069731F485E090E090931F018093BC
:100730001E0180911B01813009F0A5C010923B0180
:1007400080913701813059F480911701882321F07D
:1007500080911701823019F481E080933C018091EF
:100760001C01282F30E080911701882F90E001961E
:1007700028173907E1F481E090E090931F018093FE
:100780001E018091190190911A01C29690931A014D
:10079000809319018091190190911A018C32914036
:1007A00030F08CE291E090931A01809319019091BE
:1007B0001C0180911701981769F580911701882312
:1007C00039F486E090E090931F0180931E0106C0EB
:1007D00085E090E090931F0180931E0190913C0171
:1007E00081E089278823B1F08091190190911A0145
:1007F000C29790931A0180931901809119019091E9
:100800001A018536910530F484E690E090931A0140
:100810008093190180911C01282F30E080911701ED
:10082000882F90E002962817390769F58091170103
:10083000823039F485E090E090931F0180931E018F
:1008400006C086E090E090931F0180931E01909176
:100850003C0181E089278823B1F0809119019091B2
:100860001A01C29790931A0180931901809119017E
:1008700090911A018536910530F484E690E09093CA
:100880001A018093190180911B01863009F0A5C0DF
:1008900010923C0180913801813059F48091180107
:1008A000882321F080911801823019F481E080932F
:1008B0003B0180911C01282F30E080911801882F86
:1008C00090E001962817390711F582E090E09093A7
:1008D0001F0180931E0190913B0181E089278823AD
:1008E000B1F08091190190911A01C29690931A016A
:1008F000809319018091190190911A018C329140D5
:1009000030F08CE291E090931A018093190190915C
:100910001C0180911801981769F5809118018823AE
:1009200039F484E090E090931F0180931E0106C08B
:1009300083E090E090931F0180931E0190913B0112
:1009400081E089278823B1F08091190190911A01E3
:10095000C29790931A018093190180911901909187
:100960001A018536910530F484E690E090931A01DF
:100970008093190180911C01282F30E0809118018B
:10098000882F90E002962817390739F580911801D1
:10099000823039F483E090E090931F0180931E0130
:1009A00006C084E090E090931F0180931E01809127
:1009B000190190911A01C29790931A01809319011D
:1009C0008091190190911A018536910530F484E6E1
:1009D00090E090931A018093190180911E019091EB
:1009E0001F010E94AB0281E090E09A83898302C0DC
:1009F0001A82198289819A810F900F90DF91CF918D
:100A00000895CF93DF9300D0CDB7DEB79A83898363
:100A100089819A81009719F0019789F053C08091DC
:100A20003F01882349F080914001813029F481E021
:100A300090E09A8389834BC01A82198248C08091C2
:100A40007B01882339F480918801882319F410925E
:100A500037012CC080917B01882339F08091880177
:100A6000882319F01092370121C080917B018823DF
:100A700069F0809117018823C9F081E080933701E4
:100A80008091170181508093170110C080918801D7
:100A9000882361F080911701823041F081E08093DA
:100AA0003701809117018F5F80931701809120019A
:100AB000813019F41A8219820AC081E090E09A8389
:100AC000898305C081E090E09A8389830000898151
:100AD0009A810F900F90DF91CF910895CF93DF937C
:100AE00000D0CDB7DEB79A83898389819A81009738
:100AF00019F0019789F056C080912001882349F4AC
:100B000080914001813029F481E090E09A838983CB
:100B10004EC01A8219824BC080913F018130B1F5DD
:100B20000E94610A81709078992324F401978E6F56
:100B30009F6F0196019751F590911C0180911801CA
:100B4000981778F480911801882319F410923801CD
:100B500008C08091180181508093180181E0809332
:100B6000380190911C0180911801891778F48091C7
:100B70001801823019F41092380108C080911801D0
:100B80008F5F8093180181E080933801809120016C
:100B9000813019F41A8219820AC081E090E09A83A8
:100BA000898305C081E090E09A8389830000898170
:100BB0009A810F900F90DF91CF910895CF93DF939B
:100BC00000D0CDB7DEB79A83898389819A8182303C
:100BD000910509F470C0833091052CF4009759F009
:100BE000019749F1EAC08330910509F4C0C0049728
:100BF00009F4D5C0E2C01092400181E08093200149
:100C000080917D01882341F081E080933F0181E064
:100C100090E09A838983D4C080918601882341F033
:100C200082E080933F0181E090E09A838983C8C08D
:100C30001A821982C5C02091390130913A01809100
:100C4000190190911A01820F931F90933A0180939A
:100C500039018091390190913A01883B9B4030F1F4
:100C600082E090E09A83898381E08093180181E09B
:100C70008093170186E080931B0182E080931C0122
:100C800082E090E090931F0180931E018CE291E03E
:100C900090931A018093190110923A011092390130
:100CA0001092200181E0809340018AC081E090E0B1
:100CB0009A83898385C01092200181E0809340014E
:100CC00080911B01882321F080911B018730A0F0C7
:100CD0001092400180911B01882329F480913E01EC
:100CE0008F5F80933E0180911B01873028F08091B7
:100CF0003D018F5F80933D0180913D01853021F062
:100D000080913E01853061F481E080932001109252
:100D10003F011092400184E090E09A83898326C0CD
:100D200080917C01882371F010923D0110923E0168
:100D30001092400181E08093200183E090E09A834B
:100D400089833EC080911B01882321F080911B0183
:100D5000873038F01092400181E090E09A838983D7
:100D600005C082E090E09A8389832AC029C010924E
:100D70003D0110923E011092400181E080932001DC
:100D80008CE291E090931A018093190181E08093A5
:100D9000170181E0809318011A82198211C0809195
:100DA0001D01882329F083E090E09A83898308C09D
:100DB00084E090E09A83898303C01A82198200003C
:100DC00089819A810F900F90DF91CF910895CF93F1
:100DD000DF9300D0CDB7DEB79A83898389819A816A
:100DE0008130910509F4BDC08230910509F4C9C074
:100DF000892B09F0D1C080913501833020F461E066
:100E000081E00E94BB0180913501882359F48091D3
:100E10001701882F90E08E5E9E4FFC01808162E07A
:100E20000E94BB0180913501813061F480911701EE
:100E3000882F90E001968E5E9E4FFC01808162E0DB
:100E40000E94BB0180913501823061F480911701CD
:100E5000882F90E002968E5E9E4FFC01808162E0BA
:100E60000E94BB0180913501833040F080913501B3
:100E7000863020F461E080E80E94BB01809135015A
:100E8000833059F480911801882F90E08E5E9E4F38
:100E9000FC01808162E00E94BB01809135018430B9
:100EA00061F480911801882F90E001968E5E9E4F2C
:100EB000FC01808162E00E94BB0180913501853098
:100EC00061F480911801882F90E002968E5E9E4F0B
:100ED000FC01808162E00E94BB0180913501863077
:100EE000E9F4809140018823C9F080911B01282FEB
:100EF00030E081E090E002C0880F991F2A95E2F768
:100F000061E00E94BB0180911C01882F90E08E5E01
:100F10009E4FFC01808162E00E94BB0180913501FF
:100F2000863069F480914001882349F461E080E4CF
:100F30000E94BB018091140162E00E94BB0185E226
:100F400090E020913E01322F330F330F330F209169
:100F50003D01230FFC01208381E090E09A83898387
:100F60001EC0809135018F5F8093350180913501DE
:100F7000873011F41092350182E090E09A838983E2
:100F80000EC061E080E00E94BB0162E08FEF0E9432
:100F9000BB011A82198203C01A821982000089815A
:100FA0009A810F900F90DF91CF9108950F931F9327
:100FB000CF93DF93CDB7DEB72F970FB6F894DEBF90
:100FC0000FBECDBF8AE290E02FEFFC0120838BE2C1
:100FD00090E0FC01108287E290E02FEFFC0120837B
:100FE00088E290E0FC01108284E290E02FEFFC01A7
:100FF000208385E290E0FC01108281E290E0FC0118
:10100000108282E290E02FEFFC0120838AE0E5E28B
:10101000F1E0DE01169601900D928A95E1F785E0E8
:1010200090E09C838B838FEF8D838D818093420131
:101030008CE291E0A0E0B0E0809343019093440102
:10104000A0934501B09346018091430190914401E2
:10105000A0914501B09146018093470190934801CA
:10106000A0934901B0934A0186E293E090934C012A
:1010700080934B018D8180934D0186E990E0A0E043
:10108000B0E080934E0190934F01A0935001B09334
:10109000510180914E0190914F01A0915001B0916A
:1010A00051018093520190935301A0935401B09346
:1010B000550181E095E090935701809356018D8111
:1010C0008093580181E090E0A0E0B0E08093590166
:1010D00090935A01A0935B01B0935C0180915901F8
:1010E00090915A01A0915B01B0915C0180935D01E8
:1010F00090935E01A0935F01B093600187EE96E04C
:1011000090936201809361018D818093630186E9F0
:1011100090E0A0E0B0E08093640190936501A0931B
:101120006601B09367018091640190916501A0917F
:101130006601B09167018093680190936901A09363
:101140006A01B0936B018EE695E090936D018093F8
:101150006C018D8180936E018091190190911A012B
:10116000CC01A0E0B0E080936F0190937001A09358
:101170007101B093720180916F0190917001A09103
:101180007101B09172018093730190937401A093E7
:101190007501B09376018EED95E090937801809380
:1011A00077010E94750261E070E080E090E00E94AB
:1011B000DD000E940B0180E090E00E94E109DC016B
:1011C000CB010E94650A80E00E94860288E790E0D9
:1011D000FC01808191818093360180911901909169
:1011E0001A01CC01A0E0B0E0809343019093440148
:1011F000A0934501B09346018091190190911A0185
:10120000CC01A0E0B0E080936F0190937001A093B7
:101210007101B093720180E290E0FC0180818095C1
:10122000847080937B0180E290E0FC018081809556
:1012300088708093880180E290E0FC018081809535
:10124000807180937C0180E290E0FC018081809538
:10125000807280937D0180E290E0FC018081809526
:101260008074809386011A8219829BC089819A8139
:10127000880F991F9E012F5F3F4F820F931F059686
:10128000FC0180819181FC01258136814781508557
:1012900089819A81880F991FBE016F5F7F4F860FEA
:1012A000971F0596FC0180819181FC0181819281CB
:1012B000A381B481281739074A075B0708F445C0A2
:1012C00089819A81880F991F9E012F5F3F4F820F5E
:1012D000931F0596FC010081118189819A81880FF5
:1012E000991F9E012F5F3F4F820F931F0596FC01B0
:1012F00080819181FC012185328589819A81880FC5
:10130000991FAE014F5F5F4F840F951F0596FC013B
:1013100080819181FC018081082E000C990BF901DC
:101320000995F801808389819A81880F991F9E0110
:101330002F5F3F4F820F931F0596FC0180819181A3
:10134000FC01158216821782108689819A81880F86
:10135000991F9E012F5F3F4F820F931F0596FC013F
:101360002081318189819A81880F991FAE014F5F59
:101370005F4F840F951F0596FC0180819181FC01D0
:1013800085819681A781B0850196A11DB11DF901C6
:1013900085839683A783B08789819A8101969A83F2
:1013A000898329813A818B819C812817390708F428
:1013B0005DCF0000809130018823E1F3109230016D
:1013C00002CFFC010FB6F89460918B0170918C01F3
:1013D00080918D0190918E010FBE309721F0608336
:1013E0007183828393830895A1E21A2EAA1BBB1BEB
:1013F000FD010DC0AA1FBB1FEE1FFF1FA217B307E1
:10140000E407F50720F0A21BB30BE40BF50B661FF6
:10141000771F881F991F1A9469F7609570958095BA
:1014200090959B01AC01BD01CF0108958F929F92D1
:10143000AF92BF92CF92DF92EF92FF92CF93DF9362
:10144000EC01688179818A819B8161157105810533
:10145000910521F464E279ED8BE597E02DE133EF1E
:1014600041E050E00E94700A49015A019B01AC0121
:10147000A7EAB1E40E948F0A6B017C01ACEEB4EFE5
:10148000A50194010E949D0ADC01CB018C0D9D1DDC
:10149000AE1DBF1DB7FF03C00197A109B0488883E7
:1014A0009983AA83BB839F77DF91CF91FF90EF90C1
:1014B000DF90CF90BF90AF909F908F9008950C9445
:1014C000160A81E291E00C94160AA0E0B0E0809345
:1014D000210190932201A0932301B0932401089548
:1014E000052E97FB1EF400940E94870A57FD07D033
:1014F0000E94F40907FC03D04EF40C94870A50951F
:101500004095309521953F4F4F4F5F4F08959095EF
:101510008095709561957F4F8F4F9F4F08950E94E2
:10152000A20AA59F900DB49F900DA49F800D911DC0
:1015300011240895B7FF0C948F0A0E948F0A821B12
:10154000930B0895A29FB001B39FC001A39F700D9C
:10155000811D1124911DB29F700D811D1124911DBB
:061560000895F894FFCF8E
:10156600000000020000000067000000000001000B
:101576000000FEFDFBF7EF01012C0106020102004F
:10158600010100000042014D01580163016E010096
:00000001FF
