:100000000C9446000C9465000C9465000C946500FB
:100010000C9465000C9465000C9465000C946500CC
:100020000C9465000C9465000C9465000C946500BC
:100030000C9465000C9459010C9465000C946500B7
:100040000C9465000C9465000C9465000C9465009C
:100050000C9465000C9465000C9465000C9465008C
:100060000C9465000C9465000C9465000C9465007C
:100070000C9465000C9465000C9465000C9465006C
:100080000C9465000C9465000C94650011241FBE4F
:10009000CFEFD0E4DEBFCDBF11E0A0E0B1E0E6E1FC
:1000A000F8E100E00BBF02C007900D92AE37B10738
:1000B000D9F721E0AEE7B1E001C01D92A13EB20741
:1000C000E1F70E9404090C94090C0C940000CF93F2
:1000D000DF9300D01F92CDB7DEB789837B836A831D
:1000E00089818A3031F48A819B81BC018DE00E9434
:1000F000670080EC90E0FC018081882F90E08072A6
:100100009927892BB1F386EC90E02981FC012083AB
:1001100080E090E00F900F900F90DF91CF910895C5
:10012000CF93DF93CDB7DEB72C970FB6F894DEBF31
:100130000FBECDBF6D837E838F83988729873A87D3
:100140004B875C878D819E81AF81B88529853A85F3
:100150004B855C85BC01CD010E94380BDC01CB01D5
:1001600089839A83AB83BC8389819A81AB81BC816B
:10017000892B8A2B8B2B29F489859A85AB85BC85A5
:1001800011C089859A85AB85BC858D839E83AF839D
:10019000B88789819A81AB81BC8189879A87AB872F
:1001A000BC87D0CFBC01CD012C960FB6F894DEBF32
:1001B0000FBECDBFDF91CF910895CF93DF9300D0D5
:1001C00000D0CDB7DEB769837A838B839C83898126
:1001D0009A81AB81BC8180930E0190930F01A09313
:1001E0001001B093110180910E0190910F01A09127
:1001F0001001B091110180937F0190938001A09331
:100200008101B093820100000F900F900F900F902A
:10021000DF91CF910895CF93DF93CDB7DEB781E81B
:1002200090E02BE0FC01208388E890E02DE730E0AF
:10023000FC01318320838FE690E022E0FC012083E3
:1002400084E890E0FC011182108280910E0190916F
:100250000F01A0911001B091110180937F01909343
:100260008001A0938101B09382018FE590E02FE59A
:1002700030E0F90120812068FC0120830000DF913B
:10028000CF910895CF93DF93CDB7DEB781E890E0AB
:10029000FC0110820000DF91CF910895CF93DF938E
:1002A000CDB7DEB781E080937E010000DF91CF9172
:1002B00008951F920F9200905F000F9211240090FA
:1002C0005B000F922F933F934F935F936F937F93B6
:1002D0008F939F93AF93BF93EF93FF93CF93DF934E
:1002E000CDB7DEB780917F0190918001A09181010F
:1002F000B09182010197A109B10980937F01909388
:100300008001A0938101B093820180917F0190913F
:100310008001A0918101B0918201892B8A2B8B2BC6
:1003200091F40E944E0180910E0190910F01A091D5
:100330001001B091110180937F0190938001A093EF
:100340008101B09382010000DF91CF91FF91EF9185
:10035000BF91AF919F918F917F916F915F914F91DD
:100360003F912F910F9000925B000F9000925F00E1
:100370000F901F901895CF93DF9300D000D0CDB78A
:10038000DEB78B836C838B8182958F70282F8B8156
:10039000882F90E082959295907F9827807F98276C
:1003A000822B8B838B81882F90E08C7C992795956D
:1003B000879595958795282F8B81882F90E083735B
:1003C0009927880F991F880F991F822B8B838B8108
:1003D000882F90E08A7A992795958795282F8B8189
:1003E000882F90E085759927880F991F822B8B8322
:1003F0008C818130C1F51A82198227C088E290E091
:1004000028E0FC01208388E290E028E230E0F90156
:100410002081422F2B81222F30E0098002C03595A8
:1004200027950A94E2F72170242BFC01208388E2AF
:1004300090E028E230E0F90120812260FC01208375
:1004400089819A8101969A83898389819A81089703
:10045000ACF288E290E028E230E0F90120812460EB
:10046000FC0120833AC08C818230B9F51A8219824E
:1004700027C08BE290E028E0FC0120838BE290E033
:100480002BE230E0F9012081422F2B81222F30E036
:10049000098002C0359527950A94E2F72170242B34
:1004A000FC0120838BE290E02BE230E0F901208117
:1004B0002260FC01208389819A8101969A83898335
:1004C00089819A810897ACF28BE290E02BE230E0D0
:1004D000F90120812460FC01208300000F900F901F
:1004E0000F900F90DF91CF910895CF93DF93CDB709
:1004F000DEB78AE790E02AE730E0F9012081206E3C
:10050000FC0120830000DF91CF910895CF93DF930A
:100510001F92CDB7DEB789838CE790E02981283020
:1005200028F02CE730E0F901208101C02981FC018D
:1005300020831092930106C00000809193018F5F89
:1005400080939301809193018F30B0F300000F905E
:10055000DF91CF910895CF93DF9300D0CDB7DEB771
:100560009A83898389819A81019729F4809169010D
:100570008F5F8093690189819A81029729F4809124
:10058000690181508093690189819A81039799F467
:100590008091690181508093690180916A01815045
:1005A00080936A0180918D01882329F080916A01EE
:1005B000815080936A0189819A81049799F480918E
:1005C000690181508093690180916A018F5F8093F6
:1005D0006A0180918D01882329F080916A018F5FE3
:1005E00080936A0189819A81059799F480916901C4
:1005F0008F5F8093690180916A01815080936A01C5
:1006000080918E01882329F080916A018150809326
:100610006A0189819A81069799F4809169018F5FB7
:100620008093690180916A018F5F80936A01809154
:100630008E01882329F080916A018F5F80936A017F
:1006400000000F900F90DF91CF910895CF93DF932B
:1006500000D0CDB7DEB79A83898389819A810097CC
:1006600019F0019789F0C4C180919201882349F063
:1006700080916E01882329F481E090E09A83898338
:10068000B9C11A821982B6C180916E01882321F402
:1006900080919201882319F41A821982ABC180914A
:1006A0006A01882311F580916901813009F441C004
:1006B000809169018630E9F180916C0190916D0122
:1006C000039731F484E090E090936D0180936C0186
:1006D00080916C0190916D01059759F586E090E04D
:1006E00090936D0180936C0124C080916A018430E5
:1006F00001F5809169018130E1F0809169018630D6
:10070000C1F080916C0190916D01049731F483E008
:1007100090E090936D0180936C0180916C019091B9
:100720006D01069731F485E090E090936D01809320
:100730006C0180916901813009F0A5C010928D0192
:1007400080918901813059F480916501882321F0DD
:1007500080916501823019F481E080938E0180914F
:100760006A01282F30E080916501882F90E0019682
:1007700028173907E1F481E090E090936D018093B0
:100780006C018091670190916801C2969093680115
:100790008093670180916701909168018C3291404C
:1007A00030F08CE291E09093680180936701909122
:1007B0006A0180916501981769F580916501882328
:1007C00039F486E090E090936D0180936C0106C04F
:1007D00085E090E090936D0180936C0190918E0183
:1007E00081E089278823B1F08091670190916801A9
:1007F000C2979093680180936701809167019091FF
:1008000068018536910530F484E690E090936801A4
:100810008093670180916A01282F30E08091650103
:10082000882F90E002962817390769F580916501B5
:10083000823039F485E090E090936D0180936C01F3
:1008400006C086E090E090936D0180936C019091DA
:100850008E0181E089278823B1F080916701909112
:100860006801C29790936801809367018091670146
:10087000909168018536910530F484E690E090937C
:1008800068018093670180916901863009F0A5C0F5
:1008900010928E0180918A01813059F48091660115
:1008A000882321F080916601823019F481E08093E1
:1008B0008D0180916A01282F30E080916601882F98
:1008C00090E001962817390711F582E090E09093A7
:1008D0006D0180936C0190918D0181E089278823BF
:1008E000B1F08091670190916801C2969093680180
:1008F0008093670180916701909168018C329140EB
:1009000030F08CE291E090936801809367019091C0
:100910006A0180916601981769F5809166018823C4
:1009200039F484E090E090936D0180936C0106C0EF
:1009300083E090E090936D0180936C0190918D0124
:1009400081E089278823B1F0809167019091680147
:10095000C29790936801809367018091670190919D
:1009600068018536910530F484E690E09093680143
:100970008093670180916A01282F30E080916601A1
:10098000882F90E002962817390739F58091660183
:10099000823039F483E090E090936D0180936C0194
:1009A00006C084E090E090936D0180936C0180918B
:1009B000670190916801C2979093680180936701E5
:1009C00080916701909168018536910530F484E645
:1009D00090E0909368018093670180916C01909101
:1009E0006D010E94AB0281E090E09A83898302C08E
:1009F0001A82198289819A810F900F90DF91CF918D
:100A00000895CF93DF9300D0CDB7DEB79A83898363
:100A100089819A81009719F0019789F053C08091DC
:100A20009101882349F080919201813029F481E07D
:100A300090E09A8389834BC01A82198248C08091C2
:100A4000CD01882339F48091DA01882319F41092BA
:100A500089012CC08091CD01882339F08091DA0181
:100A6000882319F01092890121C08091CD0188233B
:100A700069F0809165018823C9F081E08093890144
:100A80008091650181508093650110C08091DA01E9
:100A9000882361F080916501823041F081E080938C
:100AA0008901809165018F5F8093650180916E015E
:100AB000813019F41A8219820AC081E090E09A8389
:100AC000898305C081E090E09A8389830000898151
:100AD0009A810F900F90DF91CF910895CF93DF937C
:100AE00000D0CDB7DEB79A83898389819A81009738
:100AF00019F0019789F0F1C080916E01882349F4C3
:100B000080919201813029F481E090E09A83898379
:100B1000E9C01A821982E6C080919101813009F002
:100B20009CC00E94B90B2AE030E0B9010E94240B5E
:100B300003970CF492C080916C0190916D01059720
:100B400031F080916C0190916D01069769F580916B
:100B50006C0190916D01059781F480916601882365
:100B600019F410928A0178C081E080938A01809103
:100B700066018150809366016FC080916C019091F5
:100B80006D01069709F068C080916601823019F402
:100B900010928A0161C081E080938A018091660190
:100BA0008F5F8093660158C080916C0190916D01B8
:100BB000019739F580916A01282F30E08091660114
:100BC000882F90E001962817390709F046C08091D8
:100BD0006601823049F481E080938A018091660148
:100BE00081508093660139C0809166018823A9F500
:100BF00081E080938A01809166018F5F8093660116
:100C00002CC090916A0180916601981778F48091C8
:100C10006601882319F410928A0108C08091660148
:100C200081508093660181E080938A0190916A01EE
:100C300080916601891788F480916601823019F4E9
:100C400010928A010AC0809166018F5F80936601CD
:100C500081E080938A0101C000008091910182307F
:100C600081F580918701909188018835924080F0CC
:100C700080916601882319F410928A0122C081E0D4
:100C800080938A018091660181508093660119C02A
:100C90008091870190918801853D914080F48091F9
:100CA0006601823019F410928A010BC081E08093B2
:100CB0008A01809166018F5F8093660102C0109265
:100CC0008A0180916E01813019F41A8219820AC05A
:100CD00081E090E09A83898305C081E090E09A8367
:100CE0008983000089819A810F900F90DF91CF91C5
:100CF0000895CF93DF9300D0CDB7DEB79A83898371
:100D000089819A818230910509F470C08330910500
:100D10002CF4009759F0019749F10EC183309105E9
:100D200009F4C8C0049709F4DDC006C1109292010D
:100D300081E080936E018091CF01882341F081E0B2
:100D40008093910181E090E09A838983F8C080913B
:100D5000D801882341F082E08093910181E090E006
:100D60009A838983ECC01A821982E9C020918B0191
:100D700030918C018091670190916801820F931FDF
:100D800090938C0180938B0180918B0190918C01C9
:100D9000883B9B4030F182E090E09A83898381E038
:100DA0008093660181E08093650186E0809369010C
:100DB00082E080936A0182E090E090936D018093DD
:100DC0006C018CE291E0909368018093670110922E
:100DD0008C0110928B0110926E0181E08093920140
:100DE000AEC081E090E09A838983A9C010926E0121
:100DF00081E08093920180916901882321F08091A4
:100E000069018730A0F010929201809169018823D6
:100E100029F4809190018F5F809390018091690106
:100E2000873028F080918F018F5F80938F018091B0
:100E30008F01853021F080919001853071F481E03F
:100E400080936E01109291011092920110926B01A9
:100E500084E090E09A8389832CC08091CE0188231E
:100E600071F010928F01109290011092920181E026
:100E700080936E0183E090E09A83898360C08091C3
:100E80006901882321F080916901873068F0109210
:100E9000920181E08093650181E08093660181E0A9
:100EA00090E09A83898305C082E090E09A838983E9
:100EB00046C045C010928F0110929001109292018D
:100EC00081E080936E018CE291E0909368018093C1
:100ED000670181E08093650181E0809366011A8259
:100EE00019822DC080916B01882329F083E090E066
:100EF0009A83898324C02091850130918601809155
:100F0000670190916801820F931F909386018093EF
:100F1000850180918501909186018838934138F050
:100F200081E080936B01109286011092850184E02C
:100F300090E09A83898303C01A8219820000898114
:100F40009A810F900F90DF91CF910895CF93DF9307
:100F500000D0CDB7DEB79A83898389819A818130A9
:100F6000910509F4CDC0823091051CF4892B49F01C
:100F700041C18230910509F4D7C0039709F4EAC052
:100F800039C180916B01882329F483E090E09A8332
:100F9000898333C180918301833020F461E081E053
:100FA0000E94BB0180918301882359F480916501DF
:100FB000882F90E08E5E9E4FFC01808162E00E944F
:100FC000BB0180918301813061F480916501882F9C
:100FD00090E001968E5E9E4FFC01808162E00E944F
:100FE000BB0180918301823061F480916501882F7B
:100FF00090E002968E5E9E4FFC01808162E00E942E
:10100000BB0180918301833040F080918301863061
:1010100020F461E080E80E94BB018091830183306D
:1010200059F480916601882F90E08E5E9E4FFC01FE
:10103000808162E00E94BB0180918301843061F471
:1010400080916601882F90E001968E5E9E4FFC0194
:10105000808162E00E94BB0180918301853061F450
:1010600080916601882F90E002968E5E9E4FFC0173
:10107000808162E00E94BB01809183018630E9F4A7
:10108000809192018823C9F080916901282F30E076
:1010900081E090E002C0880F991F2A95E2F761E095
:1010A0000E94BB0180916A01882F90E08E5E9E4F66
:1010B000FC01808162E00E94BB0180918301863047
:1010C00069F480919201882349F461E080E40E94F0
:1010D000BB018091140162E00E94BB0185E290E0B7
:1010E00020919001322F330F330F330F20918F0156
:1010F000230FFC01208381E090E09A8389837DC0E7
:1011000080916B01813059F4809183018F5F8093CE
:10111000830180918301873011F41092830182E072
:1011200090E09A83898369C061E080E00E94BB01FE
:1011300062E08FEF0E94BB0180916B01813029F446
:10114000109284011A82198258C083E090E09A8339
:10115000898353C080918F01853011F5809184017E
:10116000882F90E0895E9E4FFC01808161E00E94A3
:10117000BB0180918401882F90E0875D9E4FFC0128
:10118000808162E00E94BB01809184018F5F809327
:10119000840180918401823140F11092840125C044
:1011A00080919001853009F580918401882F90E02D
:1011B000855C9E4FFC01808161E00E94BB018091B3
:1011C0008401882F90E0805B9E4FFC01808162E06B
:1011D0000E94BB01809184018F5F80938401809184
:1011E0008401853110F01092840181E090E09A83AF
:1011F000898303C01A821982000089819A810F9025
:101200000F90DF91CF9108950F931F93CF93DF93AA
:10121000CDB7DEB72F970FB6F894DEBF0FBECDBFA8
:101220008AE290E02FEFFC0120838BE290E0FC014A
:10123000108287E290E02FEFFC01208388E290E0AB
:10124000FC01108284E290E02FEFFC01208385E214
:1012500090E0FC01108281E290E0FC01108282E2C9
:1012600090E02FEFFC0120838AE0E3E7F1E0DE016C
:10127000169601900D928A95E1F785E090E09C83A7
:101280008B838FEF8D838D81809394018CE291E02D
:10129000A0E0B0E08093950190939601A093970110
:1012A000B09398018091950190919601A09197013A
:1012B000B09198018093990190939A01A0939B011A
:1012C000B0939C0186E293E090939E0180939D01F0
:1012D0008D8180939F0186E990E0A0E0B0E080934B
:1012E000A0019093A101A093A201B093A3018091CA
:1012F000A0019091A101A091A201B091A3018093BE
:10130000A4019093A501A093A601B093A70181E049
:1013100095E09093A9018093A8018D818093AA0103
:1013200081E090E0A0E0B0E08093AB019093AC014D
:10133000A093AD01B093AE018091AB019091AC014F
:10134000A091AD01B091AE018093AF019093B00137
:10135000A093B101B093B20186EA97E09093B401F3
:101360008093B3018D818093B50186E990E0A0E080
:10137000B0E08093B6019093B701A093B801B09309
:10138000B9018091B6019091B701A091B801B091D7
:10139000B9018093BA019093BB01A093BC01B093B3
:1013A000BD018EE695E09093BF018093BE018D81D3
:1013B0008093C0018091670190916801CC01A0E009
:1013C000B0E08093C1019093C201A093C301B09398
:1013D000C4018091C1019091C201A091C301B0915B
:1013E000C4018093C5019093C601A093C701B09337
:1013F000C80189E796E09093CA018093C9010E94D1
:10140000750261E070E080E090E00E94DD000E94E3
:101410000B0180E090E00E94110BDC01CB010E94E7
:10142000BD0B81E00E94860288E790E0FC0180818C
:1014300091819093880180938701809167019091B9
:101440006801CC01A0E0B0E08093950190939601F3
:10145000A0939701B09398018091670190916801E2
:10146000CC01A0E0B0E08093C1019093C201A093B1
:10147000C301B093C40180E290E0FC0180818095BB
:1014800084708093CD0180E290E0FC0180818095A2
:1014900088708093DA0180E290E0FC018081809581
:1014A00080718093CE0180E290E0FC018081809584
:1014B00080728093CF0180E290E0FC018081809572
:1014C00080748093D8011A8219829BC089819A8185
:1014D000880F991F9E012F5F3F4F820F931F059624
:1014E000FC0180819181FC012581368147815085F5
:1014F00089819A81880F991FBE016F5F7F4F860F88
:10150000971F0596FC0180819181FC018181928168
:10151000A381B481281739074A075B0708F445C03F
:1015200089819A81880F991F9E012F5F3F4F820FFB
:10153000931F0596FC010081118189819A81880F92
:10154000991F9E012F5F3F4F820F931F0596FC014D
:1015500080819181FC012185328589819A81880F62
:10156000991FAE014F5F5F4F840F951F0596FC01D9
:1015700080819181FC018081082E000C990BF9017A
:101580000995F801808389819A81880F991F9E01AE
:101590002F5F3F4F820F931F0596FC018081918141
:1015A000FC01158216821782108689819A81880F24
:1015B000991F9E012F5F3F4F820F931F0596FC01DD
:1015C0002081318189819A81880F991FAE014F5FF7
:1015D0005F4F840F951F0596FC0180819181FC016E
:1015E00085819681A781B0850196A11DB11DF90164
:1015F00085839683A783B08789819A8101969A8390
:10160000898329813A818B819C812817390708F4C5
:101610005DCF000080917E018823E1F310927E016E
:1016200000CFFC010FB6F8946091DD017091DE01EE
:101630008091DF019091E0010FBE309721F060832F
:10164000718382839383089597FB072E16F4009489
:1016500007D077FD09D00E945A0B07FC05D03EF455
:10166000909581959F4F0895709561957F4F08954E
:10167000A1E21A2EAA1BBB1BFD010DC0AA1FBB1F96
:10168000EE1FFF1FA217B307E407F50720F0A21B08
:10169000B30BE40BF50B661F771F881F991F1A9475
:1016A00069F760957095809590959B01AC01BD019F
:1016B000CF010895AA1BBB1B51E107C0AA1FBB1F86
:1016C000A617B70710F0A61BB70B881F991F5A95CE
:1016D000A9F780959095BC01CD0108958F929F92B6
:1016E000AF92BF92CF92DF92EF92FF92CF93DF93B0
:1016F000EC01688179818A819B8161157105810581
:10170000910521F464E279ED8BE597E02DE133EF6B
:1017100041E050E00E94C80B49015A019B01AC0115
:10172000A7EAB1E40E94E70B6B017C01ACEEB4EFD9
:10173000A50194010E94F50BDC01CB018C0D9D1DD0
:10174000AE1DBF1DB7FF03C00197A109B048888334
:101750009983AA83BB839F77DF91CF91FF90EF900E
:10176000DF90CF90BF90AF909F908F9008950C9492
:101770006E0B8FE691E00C946E0BA0E0B0E08093CE
:101780006F0190937001A0937101B093720108955D
:10179000052E97FB1EF400940E94DF0B57FD07D027
:1017A0000E94380B07FC03D04EF40C94DF0B5095CD
:1017B0004095309521953F4F4F4F5F4F089590953D
:1017C0008095709561957F4F8F4F9F4F08950E9430
:1017D000FA0BA59F900DB49F900DA49F800D911DB5
:1017E00011240895B7FF0C94E70B0E94E70B821BAE
:1017F000930B0895A29FB001B39FC001A39F700DEA
:10180000811D1124911DB29F700D811D1124911D08
:061810000895F894FFCFDB
:101816000000000200000000670000000000010058
:101826000000FEFDFBF7EF402010040240100240CE
:10183600201002400240040201FEFEFEFEFEFDFDF7
:10184600FDFBFBFBFBF7F7EFEFEFEF402010040289
:10185600014010014020100402014004400402012E
:10186600FEFEFEFEFEFEFDFDFDFBFBFBFBFBFBF7AE
:10187600F7EFEFEFEF01012C010602010200010173
:0E18860000000094019F01AA01B501C00100FD
:00000001FF
