:100000000C9446000C9465000C9465000C946500FB
:100010000C9465000C9465000C9465000C946500CC
:100020000C9465000C9465000C9465000C946500BC
:100030000C9465000C9459010C9465000C946500B7
:100040000C9465000C9465000C9465000C9465009C
:100050000C9465000C9465000C9465000C9465008C
:100060000C9465000C9465000C9465000C9465007C
:100070000C9465000C9465000C9465000C9465006C
:100080000C9465000C9465000C94650011241FBE4F
:10009000CFEFD0E4DEBFCDBF11E0A0E0B1E0EEE3F2
:1000A000F4E100E00BBF02C007900D92AE32B10741
:1000B000D9F721E0AEE2B1E001C01D92AC38B20741
:1000C000E1F70E9442070C941D0A0C940000CF93A4
:1000D000DF9300D01F92CDB7DEB789837B836A831D
:1000E00089818A3031F48A819B81BC018DE00E9434
:1000F000670080EC90E0FC018081882F90E08072A6
:100100009927892BB1F386EC90E02981FC012083AB
:1001100080E090E00F900F900F90DF91CF910895C5
:10012000CF93DF93CDB7DEB72C970FB6F894DEBF31
:100130000FBECDBF6D837E838F83988729873A87D3
:100140004B875C878D819E81AF81B88529853A85F3
:100150004B855C85BC01CD010E946009DC01CB01AF
:1001600089839A83AB83BC8389819A81AB81BC816B
:10017000892B8A2B8B2B29F489859A85AB85BC85A5
:1001800011C089859A85AB85BC858D839E83AF839D
:10019000B88789819A81AB81BC8189879A87AB872F
:1001A000BC87D0CFBC01CD012C960FB6F894DEBF32
:1001B0000FBECDBFDF91CF910895CF93DF9300D0D5
:1001C00000D0CDB7DEB769837A838B839C83898126
:1001D0009A81AB81BC8180930E0190930F01A09313
:1001E0001001B093110180910E0190910F01A09127
:1001F0001001B091110180932F0190933001A093D1
:100200003101B093320100000F900F900F900F90CA
:10021000DF91CF910895CF93DF93CDB7DEB781E81B
:1002200090E02BE0FC01208388E890E02DE730E0AF
:10023000FC01318320838FE690E022E0FC012083E3
:1002400084E890E0FC011182108280910E0190916F
:100250000F01A0911001B091110180932F01909393
:100260003001A0933101B09332018FE590E02FE58A
:1002700030E0F90120812068FC0120830000DF913B
:10028000CF910895CF93DF93CDB7DEB781E890E0AB
:10029000FC0110820000DF91CF910895CF93DF938E
:1002A000CDB7DEB781E080932E010000DF91CF91C2
:1002B00008951F920F9200905F000F9211240090FA
:1002C0005B000F922F933F934F935F936F937F93B6
:1002D0008F939F93AF93BF93EF93FF93CF93DF934E
:1002E000CDB7DEB780912F0190913001A0913101FF
:1002F000B09132010197A109B10980932F01909328
:100300003001A0933101B093320180912F0190917F
:100310003001A0913101B0913201892B8A2B8B2BB6
:1003200091F40E944E0180910E0190910F01A091D5
:100330001001B091110180932F0190933001A0938F
:100340003101B09332010000DF91CF91FF91EF9125
:10035000BF91AF919F918F917F916F915F914F91DD
:100360003F912F910F9000925B000F9000925F00E1
:100370000F901F901895CF93DF9300D000D0CDB78A
:10038000DEB78B836C838B8182958F70282F8B8156
:10039000882F90E082959295907F9827807F98276C
:1003A000822B8B838B81882F90E08C7C992795956D
:1003B000879595958795282F8B81882F90E083735B
:1003C0009927880F991F880F991F822B8B838B8108
:1003D000882F90E08A7A992795958795282F8B8189
:1003E000882F90E085759927880F991F822B8B8322
:1003F0008C818130C1F51A82198227C088E290E091
:1004000028E0FC01208388E290E028E230E0F90156
:100410002081422F2B81222F30E0098002C03595A8
:1004200027950A94E2F72170242BFC01208388E2AF
:1004300090E028E230E0F90120812260FC01208375
:1004400089819A8101969A83898389819A81089703
:10045000ACF288E290E028E230E0F90120812460EB
:10046000FC0120833AC08C818230B9F51A8219824E
:1004700027C08BE290E028E0FC0120838BE290E033
:100480002BE230E0F9012081422F2B81222F30E036
:10049000098002C0359527950A94E2F72170242B34
:1004A000FC0120838BE290E02BE230E0F901208117
:1004B0002260FC01208389819A8101969A83898335
:1004C00089819A810897ACF28BE290E02BE230E0D0
:1004D000F90120812460FC01208300000F900F901F
:1004E0000F900F90DF91CF910895CF93DF93CDB709
:1004F000DEB78AE790E02AE730E0F9012081206E3C
:10050000FC0120830000DF91CF910895CF93DF930A
:100510001F92CDB7DEB789838CE790E02981283020
:1005200028F02CE730E0F901208101C02981FC018D
:10053000208310923E0106C0000080913E018F5F33
:1005400080933E0180913E018F30B0F300000F9008
:10055000DF91CF910895CF93DF9300D0CDB7DEB771
:100560009A83898389819A81019729F480911B015B
:100570008F5F80931B0189819A81029729F4809172
:100580001B01815080931B0189819A81039799F403
:1005900080911B01815080931B0180911C0181502F
:1005A00080931C0180913701882329F080911C01E0
:1005B000815080931C0189819A81049799F48091DC
:1005C0001B01815080931B0180911C018F5F8093E0
:1005D0001C0180913701882329F080911C018F5FD5
:1005E00080931C0189819A81059799F480911B0160
:1005F0008F5F80931B0180911C01815080931C01AF
:1006000080913801882329F080911C0181508093CA
:100610001C0189819A81069799F480911B018F5F53
:1006200080931B0180911C018F5F80931C0180913E
:100630003801882329F080911C018F5F80931C0171
:1006400000000F900F90DF91CF910895CF93DF932B
:1006500000D0CDB7DEB79A83898389819A81892BAF
:1006600009F0A7C180911C01882311F580911B011D
:10067000813009F441C080911B018630E9F18091FD
:100680001E0190911F01039731F484E090E0909354
:100690001F0180931E0180911E0190911F010597FB
:1006A00059F586E090E090931F0180931E0124C0CD
:1006B00080911C01843001F580911B018130E1F0B3
:1006C00080911B018630C1F080911E0190911F0125
:1006D000049731F483E090E090931F0180931E0112
:1006E00080911E0190911F01069731F485E090E002
:1006F00090931F0180931E0180911B01813009F0AE
:10070000A5C01092370180913501813059F4809154
:100710001701882321F080911701823019F481E0BC
:100720008093380180911C01282F30E080911701BF
:10073000882F90E0019628173907E1F481E090E0D6
:1007400090931F0180931E018091190190911A01CD
:10075000C29690931A01809319018091190190918A
:100760001A018C32914030F08CE291E090931A01A2
:100770008093190190911C0180911701981769F5D8
:1007800080911701882339F486E090E090931F014F
:1007900080931E0106C085E090E090931F01809336
:1007A0001E019091380181E089278823B1F0809162
:1007B000190190911A01C29790931A01809319011F
:1007C0008091190190911A018536910530F484E6E3
:1007D00090E090931A018093190180911C01282FB9
:1007E00030E080911701882F90E002962817390792
:1007F00069F580911701823039F485E090E090939B
:100800001F0180931E0106C086E090E090931F01B7
:1008100080931E019091380181E089278823B1F0EF
:100820008091190190911A01C29790931A018093B7
:1008300019018091190190911A018536910530F4C2
:1008400084E690E090931A018093190180911B0136
:10085000863009F0A5C010923801809136018130B0
:1008600059F480911801882321F080911801823079
:1008700019F481E08093370180911C01282F30E02A
:1008800080911801882F90E001962817390711F5FB
:1008900082E090E090931F0180931E0190913701B8
:1008A00081E089278823B1F08091190190911A0184
:1008B000C29690931A018093190180911901909129
:1008C0001A018C32914030F08CE291E090931A0141
:1008D0008093190190911C0180911801981769F576
:1008E00080911801882339F484E090E090931F01EF
:1008F00080931E0106C083E090E090931F018093D7
:100900001E019091370181E089278823B1F0809101
:10091000190190911A01C29790931A0180931901BD
:100920008091190190911A018536910530F484E681
:1009300090E090931A018093190180911C01282F57
:1009400030E080911801882F90E00296281739072F
:1009500039F580911801823039F483E090E090936A
:100960001F0180931E0106C084E090E090931F0158
:1009700080931E018091190190911A01C297909362
:100980001A01809319018091190190911A018536FD
:10099000910530F484E690E090931A018093190158
:1009A00080911E0190911F010E94AB021A82198250
:1009B00002C01A82198289819A810F900F90DF916B
:1009C000CF910895CF93DF9300D0CDB7DEB79A8350
:1009D000898389819A81892BC9F58091780188233F
:1009E00039F480918501882319F4109235012DC0C6
:1009F00080917801882339F080918501882319F04E
:100A00001092350122C080917801882369F080918D
:100A100017018823F1F081E080933501809117015F
:100A200081508093170115C080918501882389F03A
:100A300080911701823069F081E0809335018091C7
:100A400017018F5F8093170104C003C01A821982B7
:100A500001C0000089819A810F900F90DF91CF91A2
:100A60000895CF93DF9300D0CDB7DEB79A83898303
:100A700089819A81009719F0019789F056C0809179
:100A80003B01882349F080913C01813029F481E0C9
:100A900090E09A8389834EC01A8219824BC080915C
:100AA0003B018130B1F50E94CD0981709078992386
:100AB00024F401978E6F9F6F0196019751F59091E5
:100AC0001C0180911801981778F4809118018823EF
:100AD00019F41092360108C080911801815080935A
:100AE000180181E08093360190911C0180911801DA
:100AF000891778F480911801823019F41092360128
:100B000008C0809118018F5F8093180181E0809365
:100B1000360180913D01813019F41A8219820AC090
:100B200081E090E09A83898305C081E090E09A8318
:100B30008983000089819A810F900F90DF91CF9176
:100B40000895CF93DF9300D01F92CDB7DEB79B837C
:100B50008A8319828A819B8182309105B9F1833021
:100B600091052CF4009759F0019719F195C0833045
:100B7000910509F477C0049709F47BC08DC080917A
:100B80007A01882319F081E080933B0180918301F1
:100B9000882319F082E080933B0180913B018823F8
:100BA00029F081E090E09B838A8379C01B821A82BE
:100BB00076C08091190190911A01982F8981890F2F
:100BC000898381E090E09B838A8369C010923D0114
:100BD00081E080933C0180911B01882321F080916A
:100BE0001B018730A0F010923C0180911B018823EB
:100BF00029F480913A018F5F80933A0180911B0123
:100C0000873028F0809139018F5F8093390180917E
:100C10003901853021F080913A01853029F484E052
:100C200090E09B838A831DC080917901882329F0FD
:100C300083E090E09B838A8332C080911B018823EC
:100C400021F080911B01873038F010923C0181E047
:100C500090E09B838A8305C082E090E09B838A8337
:100C60001EC01DC01092390110923A011B821A82D7
:100C700016C081E080933D0110923B0180911D01DF
:100C8000882329F083E090E09B838A8308C084E076
:100C900090E09B838A8303C01B821A8200008A81B2
:100CA0009B810F900F900F90DF91CF910895CF937C
:100CB000DF9300D0CDB7DEB79A83898389819A818B
:100CC0008130910509F4B9C08230910509F4C5C09D
:100CD000892B09F0CDC080913C01882309F498C08C
:100CE00080913D01882309F093C0809133018330C6
:100CF00020F461E081E00E94BB01809133018823F0
:100D000059F480911701882F90E08E5E9E4FFC0170
:100D1000808162E00E94BB0180913301813061F4E7
:100D200080911701882F90E001968E5E9E4FFC0106
:100D3000808162E00E94BB0180913301823061F4C6
:100D400080911701882F90E002968E5E9E4FFC01E5
:100D5000808162E00E94BB0180913301833040F0CA
:100D600080913301863020F461E080E80E94BB016D
:100D700080913301833059F480911801882F90E0DD
:100D80008E5E9E4FFC01808162E00E94BB018091DB
:100D90003301843061F480911801882F90E001962E
:100DA0008E5E9E4FFC01808162E00E94BB018091BB
:100DB0003301853061F480911801882F90E002960C
:100DC0008E5E9E4FFC01808162E00E94BB0180919B
:100DD00033018630E9F480913C018823C9F0809189
:100DE0001B01282F30E081E090E002C0880F991F9E
:100DF0002A95E2F761E00E94BB0180911C01882FD7
:100E000090E08E5E9E4FFC01808162E00E94BB01FB
:100E100080913D01882321F480913C01882341F495
:100E200061E080E00E94BB0162E08FEF0E94BB01A5
:100E300081E090E09A8389831EC0809133018F5FA7
:100E40008093330180913301873011F41092330184
:100E500082E090E09A8389830EC061E080E00E9486
:100E6000BB0162E08FEF0E94BB011A82198203C0AE
:100E70001A821982000089819A810F900F90DF9168
:100E8000CF9108950F931F93CF93DF93CDB7DEB724
:100E90002F970FB6F894DEBF0FBECDBF8AE290E069
:100EA0002FEFFC0120838BE290E0FC01108287E2AF
:100EB00090E02FEFFC01208388E290E0FC0110829B
:100EC00084E290E02FEFFC01208385E290E0FC01BA
:100ED000108281E290E0FC01108282E290E02FEF2C
:100EE000FC0120838AE0E4E2F1E0DE011696019045
:100EF0000D928A95E1F785E090E09C838B838FEFDC
:100F00008D838D8180933F018CE291E0A0E0B0E081
:100F10008093400190934101A0934201B09343011B
:100F20008091400190914101A0914201B091430113
:100F30008093440190934501A0934601B0934701EB
:100F400086E293E090934901809348018D818093DC
:100F50004A0186E990E0A0E0B0E080934B019093D5
:100F60004C01A0934D01B0934E0180914B019091A3
:100F70004C01A0914D01B0914E0180934F0190938F
:100F80005001A0935101B093520182EE94E09093EE
:100F90005401809353018D818093550181E090E04D
:100FA000A0E0B0E08093560190935701A0935801C0
:100FB000B09359018091560190915701A091580129
:100FC000B091590180935A0190935B01A0935C0109
:100FD000B0935D0187E596E090935F0180935E0199
:100FE0008D818093600186E990E0A0E0B0E080937D
:100FF000610190936201A0936301B09364018091B9
:10100000610190916201A0916301B09164018093AC
:10101000650190936601A0936701B093680181E335
:1010200095E090936A01809369018D8180936B01B3
:101030008091190190911A01CC01A0E0B0E0809359
:101040006C0190936D01A0936E01B0936F0180913C
:101050006C0190916D01A0916E01B0916F01809330
:10106000700190937101A0937201B093730181EAB2
:1010700095E090937501809374010E94750261E080
:1010800070E080E090E00E94DD000E940B0180E0B3
:1010900090E00E944D09DC01CB010E94D10980E063
:1010A0000E94860288E790E0FC0180819181809314
:1010B00034018091190190911A01CC01A0E0B0E0B7
:1010C0008093400190934101A0934201B09343016A
:1010D0008091190190911A01CC01A0E0B0E08093B9
:1010E0006C0190936D01A0936E01B0936F0180E24B
:1010F00090E0FC018081809584708093780180E28B
:1011000090E0FC018081809588708093850180E269
:1011100090E0FC018081809580718093790180E26C
:1011200090E0FC0180818095807280937A0180E25A
:1011300090E0FC01808180958074809383011A8205
:1011400019829BC089819A81880F991F9E012F5F08
:101150003F4F820F931F0596FC0180819181FC0116
:10116000258136814781508589819A81880F991F11
:10117000BE016F5F7F4F860F971F0596FC01808130
:101180009181FC0181819281A381B4812817390763
:101190004A075B0708F445C089819A81880F991F27
:1011A0009E012F5F3F4F820F931F0596FC01008128
:1011B000118189819A81880F991F9E012F5F3F4F6E
:1011C000820F931F0596FC0180819181FC0121858E
:1011D000328589819A81880F991FAE014F5F5F4FD9
:1011E000840F951F0596FC0180819181FC0180810F
:1011F000082E000C990BF9010995F801808389816B
:101200009A81880F991F9E012F5F3F4F820F931F76
:101210000596FC0180819181FC011582168217825E
:10122000108689819A81880F991F9E012F5F3F4FF9
:10123000820F931F0596FC012081318189819A815B
:10124000880F991FAE014F5F5F4F840F951F059662
:10125000FC0180819181FC0185819681A781B08507
:101260000196A11DB11DF90185839683A783B087DF
:1012700089819A8101969A83898329813A818B8118
:101280009C812817390708F45DCF000080912E015A
:101290008823E1F310922E0102CFFC010FB6F894DF
:1012A000609188017091890180918A0190918B01F0
:1012B0000FBE309721F060837183828393830895FA
:1012C000A1E21A2EAA1BBB1BFD010DC0AA1FBB1F4A
:1012D000EE1FFF1FA217B307E407F50720F0A21BBC
:1012E000B30BE40BF50B661F771F881F991F1A9429
:1012F00069F760957095809590959B01AC01BD0153
:10130000CF0108958F929F92AF92BF92CF92DF92BA
:10131000EF92FF92CF93DF93EC01688179818A810C
:101320009B81611571058105910521F464E279EDD8
:101330008BE597E02DE133EF41E050E00E94DC09BE
:1013400049015A019B01AC01A7EAB1E40E94FB09E3
:101350006B017C01ACEEB4EFA50194010E94090A77
:10136000DC01CB018C0D9D1DAE1DBF1DB7FF03C061
:101370000197A109B04888839983AA83BB839F778B
:10138000DF91CF91FF90EF90DF90CF90BF90AF9023
:101390009F908F9008950C94820980E291E00C94C4
:1013A0008209A0E0B0E08093200190932101A093F6
:1013B0002201B09323010895052E97FB1EF400949B
:1013C0000E94F30957FD07D00E94600907FC03D073
:1013D0004EF40C94F30950954095309521953F4F6C
:1013E0004F4F5F4F089590958095709561957F4F11
:1013F0008F4F9F4F08950E940E0AA59F900DB49F96
:10140000900DA49F800D911D11240895B7FF0C9499
:10141000FB090E94FB09821B930B0895A29FB00158
:10142000B39FC001A39F700D811D1124911DB29F18
:0E143000700D811D1124911D0895F894FFCFB9
:10143E000000000200000000670000000000010034
:10144E000000FEFDFBF7EF01012C01060201020078
:0E145E00010000003F014A01550160016B01D1
:00000001FF
