:100000000C9446000C9465000C9465000C946500FB
:100010000C9465000C9465000C9465000C946500CC
:100020000C9465000C9465000C9465000C946500BC
:100030000C9465000C9459010C9465000C946500B7
:100040000C9465000C9465000C9465000C9465009C
:100050000C9465000C9465000C9465000C9465008C
:100060000C9465000C9465000C9465000C9465007C
:100070000C9465000C9465000C9465000C9465006C
:100080000C9465000C9465000C94650011241FBE4F
:10009000CFEFD0E4DEBFCDBF11E0A0E0B1E0EEEDE8
:1000A000F5E100E00BBF02C007900D92A033B1074D
:1000B000D9F721E0A0E3B1E001C01D92A039B20759
:1000C000E1F70E9410080C94ED0A0C940000CF9305
:1000D000DF9300D01F92CDB7DEB789837B836A831D
:1000E00089818A3031F48A819B81BC018DE00E9434
:1000F000670080EC90E0FC018081882F90E08072A6
:100100009927892BB1F386EC90E02981FC012083AB
:1001100080E090E00F900F900F90DF91CF910895C5
:10012000CF93DF93CDB7DEB72C970FB6F894DEBF31
:100130000FBECDBF6D837E838F83988729873A87D3
:100140004B875C878D819E81AF81B88529853A85F3
:100150004B855C85BC01CD010E94300ADC01CB01DE
:1001600089839A83AB83BC8389819A81AB81BC816B
:10017000892B8A2B8B2B29F489859A85AB85BC85A5
:1001800011C089859A85AB85BC858D839E83AF839D
:10019000B88789819A81AB81BC8189879A87AB872F
:1001A000BC87D0CFBC01CD012C960FB6F894DEBF32
:1001B0000FBECDBFDF91CF910895CF93DF9300D0D5
:1001C00000D0CDB7DEB769837A838B839C83898126
:1001D0009A81AB81BC8180930E0190930F01A09313
:1001E0001001B093110180910E0190910F01A09127
:1001F0001001B09111018093310190933201A093CD
:100200003301B093340100000F900F900F900F90C6
:10021000DF91CF910895CF93DF93CDB7DEB781E81B
:1002200090E02BE0FC01208388E890E02DE730E0AF
:10023000FC01318320838FE690E022E0FC012083E3
:1002400084E890E0FC011182108280910E0190916F
:100250000F01A0911001B091110180933101909391
:100260003201A0933301B09334018FE590E02FE584
:1002700030E0F90120812068FC0120830000DF913B
:10028000CF910895CF93DF93CDB7DEB781E890E0AB
:10029000FC0110820000DF91CF910895CF93DF938E
:1002A000CDB7DEB781E0809330010000DF91CF91C0
:1002B00008951F920F9200905F000F9211240090FA
:1002C0005B000F922F933F934F935F936F937F93B6
:1002D0008F939F93AF93BF93EF93FF93CF93DF934E
:1002E000CDB7DEB78091310190913201A0913301F9
:1002F000B09134010197A109B10980933101909324
:100300003201A0933301B093340180913101909177
:100310003201A0913301B0913401892B8A2B8B2BB0
:1003200091F40E944E0180910E0190910F01A091D5
:100330001001B09111018093310190933201A0938B
:100340003301B09334010000DF91CF91FF91EF9121
:10035000BF91AF919F918F917F916F915F914F91DD
:100360003F912F910F9000925B000F9000925F00E1
:100370000F901F901895CF93DF9300D000D0CDB78A
:10038000DEB78B836C838B8182958F70282F8B8156
:10039000882F90E082959295907F9827807F98276C
:1003A000822B8B838B81882F90E08C7C992795956D
:1003B000879595958795282F8B81882F90E083735B
:1003C0009927880F991F880F991F822B8B838B8108
:1003D000882F90E08A7A992795958795282F8B8189
:1003E000882F90E085759927880F991F822B8B8322
:1003F0008C818130C1F51A82198227C088E290E091
:1004000028E0FC01208388E290E028E230E0F90156
:100410002081422F2B81222F30E0098002C03595A8
:1004200027950A94E2F72170242BFC01208388E2AF
:1004300090E028E230E0F90120812260FC01208375
:1004400089819A8101969A83898389819A81089703
:10045000ACF288E290E028E230E0F90120812460EB
:10046000FC0120833AC08C818230B9F51A8219824E
:1004700027C08BE290E028E0FC0120838BE290E033
:100480002BE230E0F9012081422F2B81222F30E036
:10049000098002C0359527950A94E2F72170242B34
:1004A000FC0120838BE290E02BE230E0F901208117
:1004B0002260FC01208389819A8101969A83898335
:1004C00089819A810897ACF28BE290E02BE230E0D0
:1004D000F90120812460FC01208300000F900F901F
:1004E0000F900F90DF91CF910895CF93DF93CDB709
:1004F000DEB78AE790E02AE730E0F9012081206E3C
:10050000FC0120830000DF91CF910895CF93DF930A
:100510001F92CDB7DEB789838CE790E02981283020
:1005200028F02CE730E0F901208101C02981FC018D
:1005300020831092420106C00000809142018F5F2B
:1005400080934201809142018F30B0F300000F9000
:10055000DF91CF910895CF93DF9300D0CDB7DEB771
:100560009A83898389819A81019729F480911B015B
:100570008F5F80931B0189819A81029729F4809172
:100580001B01815080931B0189819A81039799F403
:1005900080911B01815080931B0180911C0181502F
:1005A00080931C0180913C01882329F080911C01DB
:1005B000815080931C0189819A81049799F48091DC
:1005C0001B01815080931B0180911C018F5F8093E0
:1005D0001C0180913C01882329F080911C018F5FD0
:1005E00080931C0189819A81059799F480911B0160
:1005F0008F5F80931B0180911C01815080931C01AF
:1006000080913D01882329F080911C0181508093C5
:100610001C0189819A81069799F480911B018F5F53
:1006200080931B0180911C018F5F80931C0180913E
:100630003D01882329F080911C018F5F80931C016C
:1006400000000F900F90DF91CF910895CF93DF932B
:1006500000D0CDB7DEB79A83898389819A810097CC
:1006600019F0019789F0C4C180914101882349F0B4
:1006700080912001882329F481E090E09A83898386
:10068000B9C11A821982B6C180912001882321F450
:1006900080914101882319F41A821982ABC180919B
:1006A0001C01882311F580911B01813009F441C0A0
:1006B00080911B018630E9F180911E0190911F010C
:1006C000039731F484E090E090931F0180931E0122
:1006D00080911E0190911F01059759F586E090E0E9
:1006E00090931F0180931E0124C080911C018430CF
:1006F00001F580911B018130E1F080911B01863072
:10070000C1F080911E0190911F01049731F483E0A4
:1007100090E090931F0180931E0180911E019091A3
:100720001F01069731F485E090E090931F018093BC
:100730001E0180911B01813009F0A5C010923C017F
:1007400080913801813059F480911701882321F07C
:1007500080911701823019F481E080933D018091EE
:100760001C01282F30E080911701882F90E001961E
:1007700028173907E1F481E090E090931F018093FE
:100780001E018091190190911A01C29690931A014D
:10079000809319018091190190911A018C32914036
:1007A00030F08CE291E090931A01809319019091BE
:1007B0001C0180911701981769F580911701882312
:1007C00039F486E090E090931F0180931E0106C0EB
:1007D00085E090E090931F0180931E0190913D0170
:1007E00081E089278823B1F08091190190911A0145
:1007F000C29790931A0180931901809119019091E9
:100800001A018536910530F484E690E090931A0140
:100810008093190180911C01282F30E080911701ED
:10082000882F90E002962817390769F58091170103
:10083000823039F485E090E090931F0180931E018F
:1008400006C086E090E090931F0180931E01909176
:100850003D0181E089278823B1F0809119019091B1
:100860001A01C29790931A0180931901809119017E
:1008700090911A018536910530F484E690E09093CA
:100880001A018093190180911B01863009F0A5C0DF
:1008900010923D0180913901813059F48091180105
:1008A000882321F080911801823019F481E080932F
:1008B0003C0180911C01282F30E080911801882F85
:1008C00090E001962817390711F582E090E09093A7
:1008D0001F0180931E0190913C0181E089278823AC
:1008E000B1F08091190190911A01C29690931A016A
:1008F000809319018091190190911A018C329140D5
:1009000030F08CE291E090931A018093190190915C
:100910001C0180911801981769F5809118018823AE
:1009200039F484E090E090931F0180931E0106C08B
:1009300083E090E090931F0180931E0190913C0111
:1009400081E089278823B1F08091190190911A01E3
:10095000C29790931A018093190180911901909187
:100960001A018536910530F484E690E090931A01DF
:100970008093190180911C01282F30E0809118018B
:10098000882F90E002962817390739F580911801D1
:10099000823039F483E090E090931F0180931E0130
:1009A00006C084E090E090931F0180931E01809127
:1009B000190190911A01C29790931A01809319011D
:1009C0008091190190911A018536910530F484E6E1
:1009D00090E090931A018093190180911E019091EB
:1009E0001F010E94AB0281E090E09A83898302C0DC
:1009F0001A82198289819A810F900F90DF91CF918D
:100A00000895CF93DF9300D0CDB7DEB79A83898363
:100A100089819A81009719F0019789F053C08091DC
:100A20004001882349F080914101813029F481E01F
:100A300090E09A8389834BC01A82198248C08091C2
:100A40007C01882339F480918901882319F410925C
:100A500038012CC080917C01882339F08091890174
:100A6000882319F01092380121C080917C018823DD
:100A700069F0809117018823C9F081E080933801E3
:100A80008091170181508093170110C080918901D6
:100A9000882361F080911701823041F081E08093DA
:100AA0003801809117018F5F809317018091200199
:100AB000813019F41A8219820AC081E090E09A8389
:100AC000898305C081E090E09A8389830000898151
:100AD0009A810F900F90DF91CF910895CF93DF937C
:100AE00000D0CDB7DEB79A83898389819A81009738
:100AF00019F0019789F08AC080912001882349F478
:100B000080914101813029F481E090E09A838983CA
:100B100082C01A8219827FC0809140018130B1F574
:100B20000E949D0A81709078992324F401978E6F1A
:100B30009F6F0196019751F590911C0180911801CA
:100B4000981778F480911801882319F410923901CC
:100B500008C08091180181508093180181E0809332
:100B6000390190911C0180911801891778F48091C6
:100B70001801823019F41092390108C080911801CF
:100B80008F5F8093180181E080933901809140014B
:100B9000823081F5809136019091370188359240FD
:100BA00080F080911801882319F41092390122C035
:100BB00081E0809339018091180181508093180160
:100BC00019C08091360190913701853D914080F4A4
:100BD00080911801823019F4109239010BC081E024
:100BE00080933901809118018F5F8093180102C0B2
:100BF0001092390180912001813019F41A821982F2
:100C00000AC081E090E09A83898305C081E090E08A
:100C10009A838983000089819A810F900F90DF91D8
:100C2000CF910895CF93DF9300D0CDB7DEB79A83ED
:100C3000898389819A818230910509F470C083305B
:100C400091052CF4009759F0019749F1F0C08330D9
:100C5000910509F4C6C0049709F4DBC0E8C01092FE
:100C6000410181E08093200180917E01882341F041
:100C700081E08093400181E090E09A838983DAC02B
:100C800080918701882341F082E08093400181E0D8
:100C900090E09A838983CEC01A821982CBC02091BA
:100CA0003A0130913B018091190190911A01820F14
:100CB000931F90933B0180933A0180913A01909168
:100CC0003B01883B9B4030F182E090E09A8389832E
:100CD00081E08093180181E08093170186E0809382
:100CE0001B0182E080931C0182E090E090931F0141
:100CF00080931E018CE291E090931A018093190178
:100D000010923B0110923A011092200181E08093F1
:100D1000410190C081E090E09A8389838BC010925A
:100D2000200181E08093410180911B01882321F003
:100D300080911B018730A0F01092410180911B012E
:100D4000882329F480913F018F5F80933F01809138
:100D50001B01873028F080913E018F5F80933E0118
:100D600080913E01853021F080913F01853061F412
:100D700081E080932001109240011092410184E0B3
:100D800090E09A8389832CC080917D01882371F043
:100D900010923E0110923F011092410181E0809338
:100DA000200183E090E09A83898344C080911B01F5
:100DB000882321F080911B01873068F01092410157
:100DC00081E08093170181E08093180181E090E039
:100DD0009A83898305C082E090E09A8389832AC040
:100DE00029C010923E0110923F011092410181E012
:100DF000809320018CE291E090931A018093190175
:100E000081E08093170181E0809318011A82198292
:100E100011C080911D01882329F083E090E09A831E
:100E2000898308C084E090E09A83898303C01A8292
:100E30001982000089819A810F900F90DF91CF91E4
:100E40000895CF93DF9300D0CDB7DEB79A8389831F
:100E500089819A818130910509F4BDC08230910564
:100E600009F4C9C0892B09F0D1C0809135018330C4
:100E700020F461E081E00E94BB018091350188236C
:100E800059F480911701882F90E08E5E9E4FFC01EF
:100E9000808162E00E94BB0180913501813061F464
:100EA00080911701882F90E001968E5E9E4FFC0185
:100EB000808162E00E94BB0180913501823061F443
:100EC00080911701882F90E002968E5E9E4FFC0164
:100ED000808162E00E94BB0180913501833040F047
:100EE00080913501863020F461E080E80E94BB01EA
:100EF00080913501833059F480911801882F90E05A
:100F00008E5E9E4FFC01808162E00E94BB01809159
:100F10003501843061F480911801882F90E00196AA
:100F20008E5E9E4FFC01808162E00E94BB01809139
:100F30003501853061F480911801882F90E0029688
:100F40008E5E9E4FFC01808162E00E94BB01809119
:100F500035018630E9F4809141018823C9F0809100
:100F60001B01282F30E081E090E002C0880F991F1C
:100F70002A95E2F761E00E94BB0180911C01882F55
:100F800090E08E5E9E4FFC01808162E00E94BB017A
:100F900080913501863069F480914101882349F4BC
:100FA00061E080E40E94BB018091140162E00E9434
:100FB000BB0185E290E020913F01322F330F330FC8
:100FC000330F20913E01230FFC01208381E090E04C
:100FD0009A8389831EC0809135018F5F809335018C
:100FE00080913501873011F41092350182E090E054
:100FF0009A8389830EC061E080E00E94BB0162E0B9
:101000008FEF0E94BB011A82198203C01A821982D3
:10101000000089819A810F900F90DF91CF91089500
:101020000F931F93CF93DF93CDB7DEB72F970FB6F4
:10103000F894DEBF0FBECDBF8AE290E02FEFFC0137
:1010400020838BE290E0FC01108287E290E02FEF9A
:10105000FC01208388E290E0FC01108284E290E0B1
:101060002FEFFC01208385E290E0FC01108281E2F9
:1010700090E0FC01108282E290E02FEFFC012083DF
:101080008AE0E5E2F1E0DE01169601900D928A9584
:10109000E1F785E090E09C838B838FEF8D838D81DA
:1010A000809343018CE291E0A0E0B0E080934401A2
:1010B00090934501A0934601B0934701809144016C
:1010C00090914501A0914601B0914701809348015C
:1010D00090934901A0934A01B0934B0186E293E0BB
:1010E00090934D0180934C018D8180934E0186E950
:1010F00090E0A0E0B0E080934F0190935001A09366
:101100005101B093520180914F0190915001A091F3
:101110005101B09152018093530190935401A093D7
:101120005501B093560181E095E09093580180936A
:1011300057018D818093590181E090E0A0E0B0E0FB
:1011400080935A0190935B01A0935C01B0935D0181
:1011500080915A0190915B01A0915C01B0915D0179
:1011600080935E0190935F01A0936001B093610151
:1011700081E297E090936301809362018D81809377
:10118000640186E990E0A0E0B0E08093650190936F
:101190006601A0936701B093680180916501909109
:1011A0006601A0916701B0916801809369019093F5
:1011B0006A01A0936B01B0936C018EE695E0909369
:1011C0006E0180936D018D8180936F018091190173
:1011D00090911A01CC01A0E0B0E08093700190934F
:1011E0007101A0937201B09373018091700190918D
:1011F0007101A0917201B091730180937401909379
:101200007501A0937601B093770182E196E0909307
:101210007901809378010E94750261E070E080E0BE
:1012200090E00E94DD000E940B0180E090E00E94AF
:101230001D0ADC01CB010E94A10A81E00E94860206
:1012400088E790E0FC018081918190933701809341
:1012500036018091190190911A01CC01A0E0B0E013
:101260008093440190934501A0934601B0934701B8
:101270008091190190911A01CC01A0E0B0E0809317
:10128000700190937101A0937201B093730180E299
:1012900090E0FC0180818095847080937C0180E2E5
:1012A00090E0FC018081809588708093890180E2C4
:1012B00090E0FC0180818095807180937D0180E2C7
:1012C00090E0FC0180818095807280937E0180E2B5
:1012D00090E0FC01808180958074809387011A8260
:1012E00019829BC089819A81880F991F9E012F5F67
:1012F0003F4F820F931F0596FC0180819181FC0175
:10130000258136814781508589819A81880F991F6F
:10131000BE016F5F7F4F860F971F0596FC0180818E
:101320009181FC0181819281A381B48128173907C1
:101330004A075B0708F445C089819A81880F991F85
:101340009E012F5F3F4F820F931F0596FC01008186
:10135000118189819A81880F991F9E012F5F3F4FCC
:10136000820F931F0596FC0180819181FC012185EC
:10137000328589819A81880F991FAE014F5F5F4F37
:10138000840F951F0596FC0180819181FC0180816D
:10139000082E000C990BF9010995F80180838981C9
:1013A0009A81880F991F9E012F5F3F4F820F931FD5
:1013B0000596FC0180819181FC01158216821782BD
:1013C000108689819A81880F991F9E012F5F3F4F58
:1013D000820F931F0596FC012081318189819A81BA
:1013E000880F991FAE014F5F5F4F840F951F0596C1
:1013F000FC0180819181FC0185819681A781B08566
:101400000196A11DB11DF90185839683A783B0873D
:1014100089819A8101969A83898329813A818B8176
:101420009C812817390708F45DCF000080913001B6
:101430008823E1F31092300100CFFC010FB6F8943D
:1014400060918C0170918D0180918E0190918F013E
:101450000FBE309721F06083718382839383089558
:10146000A1E21A2EAA1BBB1BFD010DC0AA1FBB1FA8
:10147000EE1FFF1FA217B307E407F50720F0A21B1A
:10148000B30BE40BF50B661F771F881F991F1A9487
:1014900069F760957095809590959B01AC01BD01B1
:1014A000CF0108958F929F92AF92BF92CF92DF9219
:1014B000EF92FF92CF93DF93EC01688179818A816B
:1014C0009B81611571058105910521F464E279ED37
:1014D0008BE597E02DE133EF41E050E00E94AC0A4C
:1014E00049015A019B01AC01A7EAB1E40E94CB0A71
:1014F0006B017C01ACEEB4EFA50194010E94D90A06
:10150000DC01CB018C0D9D1DAE1DBF1DB7FF03C0BF
:101510000197A109B04888839983AA83BB839F77E9
:10152000DF91CF91FF90EF90DF90CF90BF90AF9081
:101530009F908F9008950C94520A81E291E00C9450
:10154000520AA0E0B0E08093210190932201A09381
:101550002301B09324010895052E97FB1EF40094F7
:101560000E94C30A57FD07D00E94300A07FC03D02F
:101570004EF40C94C30A50954095309521953F4FF9
:101580004F4F5F4F089590958095709561957F4F6F
:101590008F4F9F4F08950E94DE0AA59F900DB49F24
:1015A000900DA49F800D911D11240895B7FF0C94F8
:1015B000CB0A0E94CB0A821B930B0895A29FB00115
:1015C000B39FC001A39F700D811D1124911DB29F77
:0E15D000700D811D1124911D0895F894FFCF18
:1015DE000000000200000000670000000000010093
:1015EE000000FEFDFBF7EF01012C010602010200D7
:1015FE00010100000043014E01590164016F010019
:00000001FF
