:100000000C9446000C9465000C9465000C946500FB
:100010000C9465000C9465000C9465000C946500CC
:100020000C9465000C9465000C9465000C946500BC
:100030000C9465000C9459010C9465000C946500B7
:100040000C9465000C9465000C9465000C9465009C
:100050000C9465000C9465000C9465000C9465008C
:100060000C9465000C9465000C9465000C9465007C
:100070000C9465000C9465000C9465000C9465006C
:100080000C9465000C9465000C94650011241FBE4F
:10009000CFEFD0E4DEBFCDBF11E0A0E0B1E0ECE6F1
:1000A000FDE000E00BBF02C007900D92A432B10743
:1000B000D9F721E0A4E2B1E001C01D92A036B20759
:1000C000E1F70E9411050C94B4060C940000CF9344
:1000D000DF9300D01F92CDB7DEB789837B836A831D
:1000E00089818A3031F48A819B81BC018DE00E9434
:1000F000670080EC90E0FC018081882F90E08072A6
:100100009927892BB1F386EC90E02981FC012083AB
:1001100080E090E00F900F900F90DF91CF910895C5
:10012000CF93DF93CDB7DEB72C970FB6F894DEBF31
:100130000FBECDBF6D837E838F83988729873A87D3
:100140004B875C878D819E81AF81B88529853A85F3
:100150004B855C85BC01CD010E949206DC01CB0180
:1001600089839A83AB83BC8389819A81AB81BC816B
:10017000892B8A2B8B2B29F489859A85AB85BC85A5
:1001800011C089859A85AB85BC858D839E83AF839D
:10019000B88789819A81AB81BC8189879A87AB872F
:1001A000BC87D0CFBC01CD012C960FB6F894DEBF32
:1001B0000FBECDBFDF91CF910895CF93DF9300D0D5
:1001C00000D0CDB7DEB769837A838B839C83898126
:1001D0009A81AB81BC8180930E0190930F01A09313
:1001E0001001B093110180910E0190910F01A09127
:1001F0001001B09111018093250190932601A093E5
:100200002701B093280100000F900F900F900F90DE
:10021000DF91CF910895CF93DF93CDB7DEB781E81B
:1002200090E02BE0FC01208388E890E02DE730E0AF
:10023000FC01318320838FE690E022E0FC012083E3
:1002400084E890E0FC011182108280910E0190916F
:100250000F01A0911001B09111018093250190939D
:100260002601A0932701B09328018FE590E02FE5A8
:1002700030E0F90120812068FC0120830000DF913B
:10028000CF910895CF93DF93CDB7DEB781E890E0AB
:10029000FC0110820000DF91CF910895CF93DF938E
:1002A000CDB7DEB781E0809324010000DF91CF91CC
:1002B00008951F920F9200905F000F9211240090FA
:1002C0005B000F922F933F934F935F936F937F93B6
:1002D0008F939F93AF93BF93EF93FF93CF93DF934E
:1002E000CDB7DEB78091250190912601A09127011D
:1002F000B09128010197A109B1098093250190933C
:100300002601A0932701B0932801809125019091A7
:100310002601A0912701B0912801892B8A2B8B2BD4
:1003200091F40E944E0180910E0190910F01A091D5
:100330001001B09111018093250190932601A093A3
:100340002701B09328010000DF91CF91FF91EF9139
:10035000BF91AF919F918F917F916F915F914F91DD
:100360003F912F910F9000925B000F9000925F00E1
:100370000F901F901895CF93DF9300D000D0CDB78A
:10038000DEB78B836C838B8182958F70282F8B8156
:10039000882F90E082959295907F9827807F98276C
:1003A000822B8B838B81882F90E08C7C992795956D
:1003B000879595958795282F8B81882F90E083735B
:1003C0009927880F991F880F991F822B8B838B8108
:1003D000882F90E08A7A992795958795282F8B8189
:1003E000882F90E085759927880F991F822B8B8322
:1003F0008C818130C1F51A82198227C088E290E091
:1004000028E0FC01208388E290E028E230E0F90156
:100410002081422F2B81222F30E0098002C03595A8
:1004200027950A94E2F72170242BFC01208388E2AF
:1004300090E028E230E0F90120812260FC01208375
:1004400089819A8101969A83898389819A81089703
:10045000ACF288E290E028E230E0F90120812460EB
:10046000FC0120833AC08C818230B9F51A8219824E
:1004700027C08BE290E028E0FC0120838BE290E033
:100480002BE230E0F9012081422F2B81222F30E036
:10049000098002C0359527950A94E2F72170242B34
:1004A000FC0120838BE290E02BE230E0F901208117
:1004B0002260FC01208389819A8101969A83898335
:1004C00089819A810897ACF28BE290E02BE230E0D0
:1004D000F90120812460FC01208300000F900F901F
:1004E0000F900F90DF91CF910895CF93DF9300D0BD
:1004F000CDB7DEB79A83898389819A81019729F4E0
:100500008091190181508093190189819A81029704
:1005100029F4809119018F5F8093190189819A8153
:10052000039751F4809119018F5F80931901809195
:100530001A01815080931A0189819A81049751F49C
:10054000809119018F5F8093190180911A018F5F4B
:1005500080931A0189819A81059751F4809119013C
:1005600081508093190180911A01815080931A0162
:1005700089819A81069751F4809119018150809365
:10058000190180911A018F5F80931A0100000F906A
:100590000F90DF91CF910895CF93DF9300D0CDB727
:1005A000DEB79A83898389819A81892B09F0E9C012
:1005B00080911A01882311F580911901813009F485
:1005C00041C0809119018630E9F180911B01909121
:1005D0001C01039731F484E090E090931C01809318
:1005E0001B0180911B0190911C01059759F586E034
:1005F00090E090931C0180931B0124C080911A010C
:10060000843001F5809119018130E1F08091190168
:100610008630C1F080911B0190911C01049731F448
:1006200083E090E090931C0180931B0180911B015B
:1006300090911C01069731F485E090E090931C01A5
:1006400080931B0180911901813009F046C080918F
:100650001A01282F30E080911701882F90E0019631
:100660002817390731F481E090E090931C018093C2
:100670001B0190911A0180911701981789F48091BC
:100680001701882339F486E090E090931C01809351
:100690001B0106C085E090E090931C0180931B0134
:1006A00080911A01282F30E080911701882F90E067
:1006B00002962817390789F480911701823039F49E
:1006C00085E090E090931C0180931B0106C086E0BA
:1006D00090E090931C0180931B018091190186305A
:1006E00009F046C080911A01282F30E0809118014E
:1006F000882F90E001962817390731F482E090E0C6
:1007000090931C0180931B0190911A018091180114
:10071000981789F480911801882339F484E090E0D7
:1007200090931C0180931B0106C083E090E090939E
:100730001C0180931B0180911A01282F30E08091C9
:100740001801882F90E002962817390789F48091C4
:100750001801823039F483E090E090931C0180937B
:100760001B0106C084E090E090931C0180931B0164
:1007700080911B0190911C010E9475021A821982BE
:1007800002C01A82198289819A810F900F90DF919D
:10079000CF910895CF93DF9300D0CDB7DEB79A8382
:1007A000898389819A81892B69F580914E018823FB
:1007B00021F480915C01882321F180914E018823EE
:1007C00021F080915C018823E1F480914E0188231F
:1007D00051F0809117018823C1F080911701815059
:1007E0008093170112C080915C01882371F0809181
:1007F0001701823051F0809117018F5F80931701AC
:1008000004C003C01A82198201C0000089819A8144
:100810000F900F90DF91CF910895CF93DF9300D089
:10082000CDB7DEB79A83898389819A81009739F0A1
:10083000019751F481E090E09A8389830AC081E0B6
:1008400090E09A83898305C081E090E09A83898350
:10085000000089819A810F900F90DF91CF910895C8
:10086000CF93DF9300D0CDB7DEB79A838983898198
:100870009A81892B69F480911901882321F0809154
:100880001901873011F410921D011A82198203C0D8
:100890001A821982000089819A810F900F90DF914E
:1008A000CF910895CF93DF9300D0CDB7DEB79A8371
:1008B000898389819A81009721F0019709F499C071
:1008C000A6C080912901833020F461E081E00E947C
:1008D000BB0180912901882359F480911701882F49
:1008E00090E08E5E9E4FFC01808162E00E94BB0121
:1008F00080912901813061F480911701882F90E067
:1009000001968E5E9E4FFC01808162E00E94BB01D9
:1009100080912901823061F480911701882F90E045
:1009200002968E5E9E4FFC01808162E00E94BB01B8
:1009300080912901833040F080912901863020F494
:1009400061E080E80E94BB0180912901833059F465
:1009500080911801882F90E08E5E9E4FFC0180816F
:1009600062E00E94BB0180912901843061F4809192
:100970001801882F90E001968E5E9E4FFC018081C9
:1009800062E00E94BB0180912901853061F4809171
:100990001801882F90E002968E5E9E4FFC018081A8
:1009A00062E00E94BB01809129018630E9F48091C8
:1009B0001D018823C9F080911901282F30E081E0C2
:1009C00090E002C0880F991F2A95E2F761E00E942B
:1009D000BB0180911A01882F90E08E5E9E4FFC0132
:1009E000808162E00E94BB0181E090E09A8389836C
:1009F00011C0809129018F5F809329018091290185
:100A0000873011F4109229011A82198203C01A82C8
:100A10001982000089819A810F900F90DF91CF9108
:100A200008950F931F93CF93DF93CDB7DEB72B9726
:100A30000FB6F894DEBF0FBECDBF8AE290E02FEF75
:100A4000FC0120838BE290E0FC01108287E290E0C1
:100A50002FEFFC01208388E290E0FC01108284E209
:100A600090E02FEFFC01208385E290E0FC011082F2
:100A700081E290E0FC01108282E290E02FEFFC0125
:100A8000208386E0EEE1F1E0DE01169601900D9202
:100A90008A95E1F783E090E09C838B838FEF8D83D1
:100AA0008D8180932A018CE291E0A0E0B0E08093F8
:100AB0002B0190932C01A0932D01B0932E018091D6
:100AC0002B0190912C01A0912D01B0912E018093CA
:100AD0002F0190933001A0933101B09332018CEC3F
:100AE00092E090933401809333018D81809335019E
:100AF0008CE291E0A0E0B0E0809336019093370162
:100B0000A0933801B093390180913601909137015B
:100B1000A0913801B091390180933A0190933B0143
:100B2000A0933C01B0933D018AEC93E090933F0188
:100B300080933E018D818093400181E090E0A0E0B0
:100B4000B0E08093410190934201A0934301B093A0
:100B500044018091360190913701A0913801B09104
:100B600039018093450190934601A0934701B093CA
:100B7000480182E594E090934A018093490161E045
:100B800070E080E090E00E94DD000E940B0180E2B6
:100B900090E0FC018081882F90E08170992721E00E
:100BA000892B09F020E0822F80934E0180E290E0B3
:100BB000FC0180818095827080935C0185E290E0E9
:100BC00020914E01FC0120831A8219829BC08981E9
:100BD0009A81880F991F9E012F5F3F4F820F931FAD
:100BE0000596FC0180819181FC0125813681478138
:100BF000508589819A81880F991FBE016F5F7F4F51
:100C0000860F971F0596FC0180819181FC018181EF
:100C10009281A381B481281739074A075B0708F43A
:100C200045C089819A81880F991F9E012F5F3F4F90
:100C3000820F931F0596FC010081118189819A81A1
:100C4000880F991F9E012F5F3F4F820F931F0596BC
:100C5000FC0180819181FC012185328589819A8105
:100C6000880F991FAE014F5F5F4F840F951F059648
:100C7000FC0180819181FC018081082E000C990B80
:100C8000F9010995F801808389819A81880F991F5C
:100C90009E012F5F3F4F820F931F0596FC018081BD
:100CA0009181FC01158216821782108689819A81B2
:100CB000880F991F9E012F5F3F4F820F931F05964C
:100CC000FC012081318189819A81880F991FAE01B1
:100CD0004F5F5F4F840F951F0596FC0180819181C6
:100CE000FC0185819681A781B0850196A11DB11D6A
:100CF000F90185839683A783B08789819A810196BC
:100D00009A83898329813A818B819C8128173907AD
:100D100008F45DCF0000809124018823E1F3109254
:100D2000240135CFA1E21A2EAA1BBB1BFD010DC069
:100D3000AA1FBB1FEE1FFF1FA217B307E407F5078B
:100D400020F0A21BB30BE40BF50B661F771F881F67
:100D5000991F1A9469F760957095809590959B01FD
:0C0D6000AC01BD01CF010895F894FFCF55
:100D6C00000000020000000067000000000001000D
:100D7C000000FEFDFBF7EF010106020200012A0153
:040D8C0035014001EC
:00000001FF
