:100000000C9446000C9465000C9465000C946500FB
:100010000C9465000C9465000C9465000C946500CC
:100020000C9465000C9465000C9465000C946500BC
:100030000C9465000C9459010C9465000C946500B7
:100040000C9465000C9465000C9465000C9465009C
:100050000C9465000C9465000C9465000C9465008C
:100060000C9465000C9465000C9465000C9465007C
:100070000C9465000C9465000C9465000C9465006C
:100080000C9465000C9465000C94650011241FBE4F
:10009000CFEFD0E4DEBFCDBF11E0A0E0B1E0E2E001
:1000A000F1E100E00BBF02C007900D92AE32B10744
:1000B000D9F721E0AEE2B1E001C01D92A338B2074A
:1000C000E1F70E94CD050C947F080C940000CF93BB
:1000D000DF9300D01F92CDB7DEB789837B836A831D
:1000E00089818A3031F48A819B81BC018DE00E9434
:1000F000670080EC90E0FC018081882F90E08072A6
:100100009927892BB1F386EC90E02981FC012083AB
:1001100080E090E00F900F900F90DF91CF910895C5
:10012000CF93DF93CDB7DEB72C970FB6F894DEBF31
:100130000FBECDBF6D837E838F83988729873A87D3
:100140004B875C878D819E81AF81B88529853A85F3
:100150004B855C85BC01CD010E94C207DC01CB014F
:1001600089839A83AB83BC8389819A81AB81BC816B
:10017000892B8A2B8B2B29F489859A85AB85BC85A5
:1001800011C089859A85AB85BC858D839E83AF839D
:10019000B88789819A81AB81BC8189879A87AB872F
:1001A000BC87D0CFBC01CD012C960FB6F894DEBF32
:1001B0000FBECDBFDF91CF910895CF93DF9300D0D5
:1001C00000D0CDB7DEB769837A838B839C83898126
:1001D0009A81AB81BC8180930E0190930F01A09313
:1001E0001001B093110180910E0190910F01A09127
:1001F0001001B091110180932F0190933001A093D1
:100200003101B093320100000F900F900F900F90CA
:10021000DF91CF910895CF93DF93CDB7DEB781E81B
:1002200090E02BE0FC01208388E890E02DE730E0AF
:10023000FC01318320838FE690E022E0FC012083E3
:1002400084E890E0FC011182108280910E0190916F
:100250000F01A0911001B091110180932F01909393
:100260003001A0933101B09332018FE590E02FE58A
:1002700030E0F90120812068FC0120830000DF913B
:10028000CF910895CF93DF93CDB7DEB781E890E0AB
:10029000FC0110820000DF91CF910895CF93DF938E
:1002A000CDB7DEB781E080932E010000DF91CF91C2
:1002B00008951F920F9200905F000F9211240090FA
:1002C0005B000F922F933F934F935F936F937F93B6
:1002D0008F939F93AF93BF93EF93FF93CF93DF934E
:1002E000CDB7DEB780912F0190913001A0913101FF
:1002F000B09132010197A109B10980932F01909328
:100300003001A0933101B093320180912F0190917F
:100310003001A0913101B0913201892B8A2B8B2BB6
:1003200091F40E944E0180910E0190910F01A091D5
:100330001001B091110180932F0190933001A0938F
:100340003101B09332010000DF91CF91FF91EF9125
:10035000BF91AF919F918F917F916F915F914F91DD
:100360003F912F910F9000925B000F9000925F00E1
:100370000F901F901895CF93DF9300D000D0CDB78A
:10038000DEB78B836C838B8182958F70282F8B8156
:10039000882F90E082959295907F9827807F98276C
:1003A000822B8B838B81882F90E08C7C992795956D
:1003B000879595958795282F8B81882F90E083735B
:1003C0009927880F991F880F991F822B8B838B8108
:1003D000882F90E08A7A992795958795282F8B8189
:1003E000882F90E085759927880F991F822B8B8322
:1003F0008C818130C1F51A82198227C088E290E091
:1004000028E0FC01208388E290E028E230E0F90156
:100410002081422F2B81222F30E0098002C03595A8
:1004200027950A94E2F72170242BFC01208388E2AF
:1004300090E028E230E0F90120812260FC01208375
:1004400089819A8101969A83898389819A81089703
:10045000ACF288E290E028E230E0F90120812460EB
:10046000FC0120833AC08C818230B9F51A8219824E
:1004700027C08BE290E028E0FC0120838BE290E033
:100480002BE230E0F9012081422F2B81222F30E036
:10049000098002C0359527950A94E2F72170242B34
:1004A000FC0120838BE290E02BE230E0F901208117
:1004B0002260FC01208389819A8101969A83898335
:1004C00089819A810897ACF28BE290E02BE230E0D0
:1004D000F90120812460FC01208300000F900F901F
:1004E0000F900F90DF91CF910895CF93DF9300D0BD
:1004F000CDB7DEB79A83898389819A81019729F4E0
:1005000080911B018F5F80931B0189819A810297E3
:1005100029F480911B01815080931B0189819A816C
:10052000039751F480911B01815080931B018091AE
:100530001C01815080931C0189819A81049751F498
:1005400080911B01815080931B0180911C018F5F62
:1005500080931C0189819A81059751F480911B0138
:100560008F5F80931B0180911C01815080931C013F
:1005700089819A81069751F480911B018F5F809346
:100580001B0180911C018F5F80931C0100000F9064
:100590000F90DF91CF910895CF93DF9300D0CDB727
:1005A000DEB79A83898389819A81892B09F06DC18D
:1005B00080911C01882311F580911B01813009F481
:1005C00041C080911B018630E9F180911D0190911D
:1005D0001E01039731F484E090E090931E01809314
:1005E0001D0180911D0190911E01059759F586E02E
:1005F00090E090931E0180931D0124C080911C0106
:10060000843001F580911B018130E1F080911B0164
:100610008630C1F080911D0190911E01049731F444
:1006200083E090E090931E0180931D0180911D0155
:1006300090911E01069731F485E090E090931E01A1
:1006400080931D0180911B01813009F088C0809149
:100650001C01282F30E080911701882F90E001962F
:1006600028173907E1F481E090E090931E01809310
:100670001D018091190190911A01C29690931A015F
:10068000809319018091190190911A018C32914047
:1006900030F08CE291E090931A01809319019091CF
:1006A0001C0180911701981739F580911701882353
:1006B00039F486E090E090931E0180931D0106C0FE
:1006C00085E090E090931E0180931D0180911901B7
:1006D00090911A01C29790931A0180931901809109
:1006E000190190911A018536910530F484E690E065
:1006F00090931A018093190180911C01282F30E0FA
:1007000080911701882F90E002962817390739F554
:1007100080911701823039F485E090E090931E01BA
:1007200080931D0106C086E090E090931E018093A7
:100730001D018091190190911A01C29790931A019D
:10074000809319018091190190911A0185369105C4
:1007500030F484E690E090931A018093190180911F
:100760001B01863009F088C080911C01282F30E0E1
:1007700080911801882F90E0019628173907E1F43D
:1007800082E090E090931E0180931D0180911901F9
:1007900090911A01C29690931A0180931901809149
:1007A000190190911A018C32914030F08CE291E065
:1007B00090931A018093190190911C018091180166
:1007C000981739F580911801882339F484E090E076
:1007D00090931E0180931D0106C083E090E09093EA
:1007E0001E0180931D018091190190911A01C297F9
:1007F00090931A01809319018091190190911A0127
:100800008536910530F484E690E090931A01809348
:10081000190180911C01282F30E080911801882F48
:1008200090E002962817390739F580911801823037
:1008300039F483E090E090931E0180931D0106C07F
:1008400084E090E090931E0180931D018091190136
:1008500090911A01C29790931A0180931901809187
:10086000190190911A018536910530F484E690E0E3
:1008700090931A018093190180911D0190911E019E
:100880000E9475021A82198202C01A821982898115
:100890009A810F900F90DF91CF910895CF93DF93BE
:1008A00000D0CDB7DEB79A83898389819A81892B5D
:1008B00069F580916E01882321F480917C01882361
:1008C00021F180916E01882321F080917C018823A1
:1008D000E1F480916E01882351F080911701882303
:1008E000C1F08091170181508093170112C080914F
:1008F0007C01882371F080911701823051F0809142
:1009000017018F5F8093170104C003C01A821982F8
:1009100001C0000089819A810F900F90DF91CF91E3
:100920000895CF93DF9300D0CDB7DEB79A83898344
:1009300089819A81009739F0019791F581E090E0E3
:100940009A83898330C00E942F0881709078992300
:1009500024F401978E6F9F6F01960197F1F49091A7
:100960001C0180911801981748F480911801882380
:1009700029F08091180181508093180190911C01F9
:1009800080911801891748F480911801823029F06C
:10099000809118018F5F809318011A82198203C019
:1009A0001A821982000089819A810F900F90DF913D
:1009B000CF910895CF93DF9300D0CDB7DEB79A8360
:1009C000898389819A81892B69F480911B0188230D
:1009D00021F080911B01873011F410921F011A82BF
:1009E000198203C01A821982000089819A810F90AE
:1009F0000F90DF91CF910895CF93DF9300D0CDB7C3
:100A0000DEB79A83898389819A818130910509F4BF
:100A10009FC08230910509F4ABC0892B09F0B3C0A7
:100A200080913301833020F461E081E00E94BB01BA
:100A300080913301882359F480911701882F90E029
:100A40008E5E9E4FFC01808162E00E94BB0180911E
:100A50003301813061F480911701882F90E0019675
:100A60008E5E9E4FFC01808162E00E94BB018091FE
:100A70003301823061F480911701882F90E0029653
:100A80008E5E9E4FFC01808162E00E94BB018091DE
:100A90003301833040F080913301863020F461E0EF
:100AA00080E80E94BB0180913301833059F480912A
:100AB0001801882F90E08E5E9E4FFC01808162E0DD
:100AC0000E94BB0180913301843061F48091180150
:100AD000882F90E001968E5E9E4FFC01808162E03F
:100AE0000E94BB0180913301853061F4809118012F
:100AF000882F90E002968E5E9E4FFC01808162E01E
:100B00000E94BB01809133018630E9F480911F017E
:100B10008823C9F080911B01282F30E081E090E00C
:100B200002C0880F991F2A95E2F761E00E94BB017D
:100B300080911C01882F90E08E5E9E4FFC01808189
:100B400062E00E94BB0181E090E09A8389831EC02D
:100B5000809133018F5F809333018091330187301F
:100B600011F41092330182E090E09A8389830EC0E1
:100B700061E080E00E94BB0162E08FEF0E94BB0158
:100B80001A82198203C01A821982000089819A810F
:100B90000F900F90DF91CF9108950F931F93CF93F4
:100BA000DF93CDB7DEB72F970FB6F894DEBF0FBE39
:100BB000CDBF8AE290E02FEFFC0120838BE290E032
:100BC000FC01108287E290E02FEFFC01208388E295
:100BD00090E0FC01108284E290E02FEFFC01208382
:100BE00085E290E0FC01108281E290E0FC0110823D
:100BF00082E290E02FEFFC0120838AE0E4E2F1E062
:100C0000DE01169601900D928A95E1F785E090E05D
:100C10009C838B838FEF8D838D81809334018CE255
:100C200091E0A0E0B0E08093350190933601A0936D
:100C30003701B09338018091350190913601A09130
:100C40003701B09138018093390190933A01A09314
:100C50003B01B0933C018CEC92E090933E01809379
:100C60003D018D8180933F0186E990E0A0E0B0E0F6
:100C70008093400190934101A0934201B0934301BE
:100C80008091400190914101A0914201B0914301B6
:100C90008093440190934501A0934601B09347018E
:100CA0008EE494E090934901809348018D81809374
:100CB0004A0181E090E0A0E0B0E080934B01909386
:100CC0004C01A0934D01B0934E0180914B01909146
:100CD0004C01A0914D01B0914E0180934F01909332
:100CE0005001A0935101B09352018CEF94E0909386
:100CF0005401809353018D818093550186E990E0E2
:100D0000A0E0B0E08093560190935701A093580162
:100D1000B09359018091560190915701A0915801CB
:100D2000B091590180935A0190935B01A0935C01AB
:100D3000B0935D0181E994E090935F0180935E013F
:100D40008D81809360018CE291E0A0E0B0E080931F
:100D5000610190936201A0936301B093640180915B
:100D6000610190916201A0916301B091640180934F
:100D7000650190936601A0936701B09368018AEDC5
:100D800094E090936A018093690161E070E080E0F3
:100D900090E00E94DD000E940B0180E090E00E9444
:100DA000AF07DC01CB010E943308809119019091BB
:100DB0001A01CC01A0E0B0E0809335019093360198
:100DC000A0933701B093380180E290E0FC0180816C
:100DD000882F90E08170992721E0892B09F020E08D
:100DE000822F80936E0180E290E0FC0180818095EB
:100DF000827080937C0185E290E020916E01FC017D
:100E000020831A8219829BC089819A81880F991F39
:100E10009E012F5F3F4F820F931F0596FC0180813B
:100E20009181FC01258136814781508589819A8194
:100E3000880F991FBE016F5F7F4F860F971F059622
:100E4000FC0180819181FC0181819281A381B48127
:100E5000281739074A075B0708F445C089819A813A
:100E6000880F991F9E012F5F3F4F820F931F05969A
:100E7000FC010081118189819A81880F991F9E014F
:100E80002F5F3F4F820F931F0596FC018081918158
:100E9000FC012185328589819A81880F991FAE01D5
:100EA0004F5F5F4F840F951F0596FC0180819181F4
:100EB000FC018081082E000C990BF9010995F801BD
:100EC000808389819A81880F991F9E012F5F3F4FF0
:100ED000820F931F0596FC0180819181FC01158290
:100EE00016821782108689819A81880F991F9E0128
:100EF0002F5F3F4F820F931F0596FC0120813181A8
:100F000089819A81880F991FAE014F5F5F4F840FCF
:100F1000951F0596FC0180819181FC018581968158
:100F2000A781B0850196A11DB11DF9018583968326
:100F3000A783B08789819A8101969A8389832981C1
:100F40003A818B819C812817390708F45DCF000016
:100F500080912E018823E1F310922E0126CFFC010F
:100F60000FB6F89460917F017091800180918101AA
:100F7000909182010FBE309721F06083718382834C
:100F800093830895A1E21A2EAA1BBB1BFD010DC07D
:100F9000AA1FBB1FEE1FFF1FA217B307E407F50729
:100FA00020F0A21BB30BE40BF50B661F771F881F05
:100FB000991F1A9469F760957095809590959B019B
:100FC000AC01BD01CF0108958F929F92AF92BF9265
:100FD000CF92DF92EF92FF92CF93DF93EC01688183
:100FE00079818A819B81611571058105910521F4C3
:100FF00064E279ED8BE597E02DE133EF41E050E0DD
:101000000E943E0849015A019B01AC01A7EAB1E4E4
:101010000E945D086B017C01ACEEB4EFA501940168
:101020000E946B08DC01CB018C0D9D1DAE1DBF1D08
:10103000B7FF03C00197A109B04888839983AA83A9
:10104000BB839F77DF91CF91FF90EF90DF90CF90A0
:10105000BF90AF909F908F9008950C94E40780E22A
:1010600091E00C94E407A0E0B0E08093200190931D
:101070002101A0932201B09323010895052E97FB2F
:101080001EF400940E94550857FD07D00E94C20725
:1010900007FC03D04EF40C945508509540953095BC
:1010A00021953F4F4F4F5F4F0895909580957095D4
:1010B00061957F4F8F4F9F4F08950E947008A59FA5
:1010C000900DB49F900DA49F800D911D1124089543
:1010D000B7FF0C945D080E945D08821B930B089576
:1010E000A29FB001B39FC001A39F700D811D112469
:1010F000911DB29F700D811D1124911D0895F894CA
:02110000FFCF1F
:101102000000000200000000670000000000010073
:101112000000FEFDFBF7EF01012C010602020001B7
:0E1122000100000034013F014A015501600147
:00000001FF
